{
	"contracts/StorageFactory.sol": {
		"StorageFactory": {
			"abi": [
				{
					"inputs": [],
					"name": "createSimpleStorageContract",
					"outputs": [],
					"stateMutability": "nonpayable",
					"type": "function"
				},
				{
					"inputs": [
						{
							"internalType": "uint256",
							"name": "",
							"type": "uint256"
						}
					],
					"name": "listOfSimpleStorageContracts",
					"outputs": [
						{
							"internalType": "contract SimpleStorage",
							"name": "",
							"type": "address"
						}
					],
					"stateMutability": "view",
					"type": "function"
				},
				{
					"inputs": [
						{
							"internalType": "uint256",
							"name": "_simpleStorageIndex",
							"type": "uint256"
						}
					],
					"name": "sfGet",
					"outputs": [
						{
							"internalType": "uint256",
							"name": "",
							"type": "uint256"
						}
					],
					"stateMutability": "view",
					"type": "function"
				},
				{
					"inputs": [
						{
							"internalType": "uint256",
							"name": "_simpleStorageIndex",
							"type": "uint256"
						},
						{
							"internalType": "uint256",
							"name": "_newSimpleStorageNumber",
							"type": "uint256"
						}
					],
					"name": "sfStore",
					"outputs": [],
					"stateMutability": "nonpayable",
					"type": "function"
				}
			],
			"devdoc": {
				"kind": "dev",
				"methods": {},
				"version": 1
			},
			"evm": {
				"assembly": "    /* \"contracts/StorageFactory.sol\":111:1047  contract StorageFactory{... */\n  mstore(0x40, 0x80)\n  callvalue\n  dup1\n  iszero\n  tag_1\n  jumpi\n  0x00\n  dup1\n  revert\ntag_1:\n  pop\n  dataSize(sub_0)\n  dup1\n  dataOffset(sub_0)\n  0x00\n  codecopy\n  0x00\n  return\nstop\n\nsub_0: assembly {\n        /* \"contracts/StorageFactory.sol\":111:1047  contract StorageFactory{... */\n      mstore(0x40, 0x80)\n      callvalue\n      dup1\n      iszero\n      tag_1\n      jumpi\n      0x00\n      dup1\n      revert\n    tag_1:\n      pop\n      jumpi(tag_2, lt(calldatasize, 0x04))\n      shr(0xe0, calldataload(0x00))\n      dup1\n      0x1563700f\n      eq\n      tag_3\n      jumpi\n      dup1\n      0x1dda6541\n      eq\n      tag_4\n      jumpi\n      dup1\n      0xc5f19c20\n      eq\n      tag_5\n      jumpi\n      dup1\n      0xf39f3035\n      eq\n      tag_6\n      jumpi\n    tag_2:\n      0x00\n      dup1\n      revert\n        /* \"contracts/StorageFactory.sol\":426:818  function sfStore(uint256 _simpleStorageIndex, uint256 _newSimpleStorageNumber) public {... */\n    tag_3:\n      tag_7\n      0x04\n      dup1\n      calldatasize\n      sub\n      dup2\n      add\n      swap1\n      tag_8\n      swap2\n      swap1\n      tag_9\n      jump\t// in\n    tag_8:\n      tag_10\n      jump\t// in\n    tag_7:\n      stop\n        /* \"contracts/StorageFactory.sol\":239:420  function createSimpleStorageContract() public {... */\n    tag_4:\n      tag_11\n      tag_12\n      jump\t// in\n    tag_11:\n      stop\n        /* \"contracts/StorageFactory.sol\":824:1044  function sfGet(uint256 _simpleStorageIndex) public view returns(uint256)   {... */\n    tag_5:\n      tag_13\n      0x04\n      dup1\n      calldatasize\n      sub\n      dup2\n      add\n      swap1\n      tag_14\n      swap2\n      swap1\n      tag_15\n      jump\t// in\n    tag_14:\n      tag_16\n      jump\t// in\n    tag_13:\n      mload(0x40)\n      tag_17\n      swap2\n      swap1\n      tag_18\n      jump\t// in\n    tag_17:\n      mload(0x40)\n      dup1\n      swap2\n      sub\n      swap1\n      return\n        /* \"contracts/StorageFactory.sol\":181:232  SimpleStorage[] public listOfSimpleStorageContracts */\n    tag_6:\n      tag_19\n      0x04\n      dup1\n      calldatasize\n      sub\n      dup2\n      add\n      swap1\n      tag_20\n      swap2\n      swap1\n      tag_15\n      jump\t// in\n    tag_20:\n      tag_21\n      jump\t// in\n    tag_19:\n      mload(0x40)\n      tag_22\n      swap2\n      swap1\n      tag_23\n      jump\t// in\n    tag_22:\n      mload(0x40)\n      dup1\n      swap2\n      sub\n      swap1\n      return\n        /* \"contracts/StorageFactory.sol\":426:818  function sfStore(uint256 _simpleStorageIndex, uint256 _newSimpleStorageNumber) public {... */\n    tag_10:\n        /* \"contracts/StorageFactory.sol\":672:701  SimpleStorage mySimpleStorage */\n      0x00\n        /* \"contracts/StorageFactory.sol\":702:730  listOfSimpleStorageContracts */\n      dup1\n        /* \"contracts/StorageFactory.sol\":731:750  _simpleStorageIndex */\n      dup4\n        /* \"contracts/StorageFactory.sol\":702:751  listOfSimpleStorageContracts[_simpleStorageIndex] */\n      dup2\n      sload\n      dup2\n      lt\n      tag_25\n      jumpi\n      tag_26\n      tag_27\n      jump\t// in\n    tag_26:\n    tag_25:\n      swap1\n      0x00\n      mstore\n      keccak256(0x00, 0x20)\n      add\n      0x00\n      swap1\n      sload\n      swap1\n      0x0100\n      exp\n      swap1\n      div\n      0xffffffffffffffffffffffffffffffffffffffff\n      and\n        /* \"contracts/StorageFactory.sol\":672:751  SimpleStorage mySimpleStorage=listOfSimpleStorageContracts[_simpleStorageIndex] */\n      swap1\n      pop\n        /* \"contracts/StorageFactory.sol\":762:777  mySimpleStorage */\n      dup1\n        /* \"contracts/StorageFactory.sol\":762:783  mySimpleStorage.store */\n      0xffffffffffffffffffffffffffffffffffffffff\n      and\n      0x6057361d\n        /* \"contracts/StorageFactory.sol\":784:807  _newSimpleStorageNumber */\n      dup4\n        /* \"contracts/StorageFactory.sol\":762:808  mySimpleStorage.store(_newSimpleStorageNumber) */\n      mload(0x40)\n      dup3\n      0xffffffff\n      and\n      0xe0\n      shl\n      dup2\n      mstore\n      0x04\n      add\n      tag_29\n      swap2\n      swap1\n      tag_18\n      jump\t// in\n    tag_29:\n      0x00\n      mload(0x40)\n      dup1\n      dup4\n      sub\n      dup2\n      0x00\n      dup8\n      dup1\n      extcodesize\n      iszero\n      dup1\n      iszero\n      tag_30\n      jumpi\n      0x00\n      dup1\n      revert\n    tag_30:\n      pop\n      gas\n      call\n      iszero\n      dup1\n      iszero\n      tag_32\n      jumpi\n      returndatasize\n      0x00\n      dup1\n      returndatacopy\n      revert(0x00, returndatasize)\n    tag_32:\n      pop\n      pop\n      pop\n      pop\n        /* \"contracts/StorageFactory.sol\":512:818  {... */\n      pop\n        /* \"contracts/StorageFactory.sol\":426:818  function sfStore(uint256 _simpleStorageIndex, uint256 _newSimpleStorageNumber) public {... */\n      pop\n      pop\n      jump\t// out\n        /* \"contracts/StorageFactory.sol\":239:420  function createSimpleStorageContract() public {... */\n    tag_12:\n        /* \"contracts/StorageFactory.sol\":296:326  SimpleStorage newSimpleStorage */\n      0x00\n        /* \"contracts/StorageFactory.sol\":327:346  new SimpleStorage() */\n      mload(0x40)\n      tag_34\n      swap1\n      tag_35\n      jump\t// in\n    tag_34:\n      mload(0x40)\n      dup1\n      swap2\n      sub\n      swap1\n      0x00\n      create\n      dup1\n      iszero\n      dup1\n      iszero\n      tag_36\n      jumpi\n      returndatasize\n      0x00\n      dup1\n      returndatacopy\n      revert(0x00, returndatasize)\n    tag_36:\n      pop\n        /* \"contracts/StorageFactory.sol\":296:346  SimpleStorage newSimpleStorage=new SimpleStorage() */\n      swap1\n      pop\n        /* \"contracts/StorageFactory.sol\":357:385  listOfSimpleStorageContracts */\n      0x00\n        /* \"contracts/StorageFactory.sol\":391:407  newSimpleStorage */\n      dup2\n        /* \"contracts/StorageFactory.sol\":357:408  listOfSimpleStorageContracts.push(newSimpleStorage) */\n      swap1\n      dup1\n      0x01\n      dup2\n      sload\n      add\n      dup1\n      dup3\n      sstore\n      dup1\n      swap2\n      pop\n      pop\n      0x01\n      swap1\n      sub\n      swap1\n      0x00\n      mstore\n      keccak256(0x00, 0x20)\n      add\n      0x00\n      swap1\n      swap2\n      swap1\n      swap2\n      swap1\n      swap2\n      0x0100\n      exp\n      dup2\n      sload\n      dup2\n      0xffffffffffffffffffffffffffffffffffffffff\n      mul\n      not\n      and\n      swap1\n      dup4\n      0xffffffffffffffffffffffffffffffffffffffff\n      and\n      mul\n      or\n      swap1\n      sstore\n      pop\n        /* \"contracts/StorageFactory.sol\":285:420  {... */\n      pop\n        /* \"contracts/StorageFactory.sol\":239:420  function createSimpleStorageContract() public {... */\n      jump\t// out\n        /* \"contracts/StorageFactory.sol\":824:1044  function sfGet(uint256 _simpleStorageIndex) public view returns(uint256)   {... */\n    tag_16:\n        /* \"contracts/StorageFactory.sol\":888:895  uint256 */\n      0x00\n        /* \"contracts/StorageFactory.sol\":910:940  SimpleStorage  mySimpleStorage */\n      dup1\n        /* \"contracts/StorageFactory.sol\":941:969  listOfSimpleStorageContracts */\n      0x00\n        /* \"contracts/StorageFactory.sol\":970:989  _simpleStorageIndex */\n      dup4\n        /* \"contracts/StorageFactory.sol\":941:990  listOfSimpleStorageContracts[_simpleStorageIndex] */\n      dup2\n      sload\n      dup2\n      lt\n      tag_39\n      jumpi\n      tag_40\n      tag_27\n      jump\t// in\n    tag_40:\n    tag_39:\n      swap1\n      0x00\n      mstore\n      keccak256(0x00, 0x20)\n      add\n      0x00\n      swap1\n      sload\n      swap1\n      0x0100\n      exp\n      swap1\n      div\n      0xffffffffffffffffffffffffffffffffffffffff\n      and\n        /* \"contracts/StorageFactory.sol\":910:990  SimpleStorage  mySimpleStorage=listOfSimpleStorageContracts[_simpleStorageIndex] */\n      swap1\n      pop\n        /* \"contracts/StorageFactory.sol\":1008:1023  mySimpleStorage */\n      dup1\n        /* \"contracts/StorageFactory.sol\":1008:1031  mySimpleStorage.retrive */\n      0xffffffffffffffffffffffffffffffffffffffff\n      and\n      0xa6b7fc5b\n        /* \"contracts/StorageFactory.sol\":1008:1033  mySimpleStorage.retrive() */\n      mload(0x40)\n      dup2\n      0xffffffff\n      and\n      0xe0\n      shl\n      dup2\n      mstore\n      0x04\n      add\n      0x20\n      mload(0x40)\n      dup1\n      dup4\n      sub\n      dup2\n      dup7\n      gas\n      staticcall\n      iszero\n      dup1\n      iszero\n      tag_43\n      jumpi\n      returndatasize\n      0x00\n      dup1\n      returndatacopy\n      revert(0x00, returndatasize)\n    tag_43:\n      pop\n      pop\n      pop\n      pop\n      mload(0x40)\n      returndatasize\n      not(0x1f)\n      0x1f\n      dup3\n      add\n      and\n      dup3\n      add\n      dup1\n      0x40\n      mstore\n      pop\n      dup2\n      add\n      swap1\n      tag_44\n      swap2\n      swap1\n      tag_45\n      jump\t// in\n    tag_44:\n        /* \"contracts/StorageFactory.sol\":1001:1033  return mySimpleStorage.retrive() */\n      swap2\n      pop\n      pop\n        /* \"contracts/StorageFactory.sol\":824:1044  function sfGet(uint256 _simpleStorageIndex) public view returns(uint256)   {... */\n      swap2\n      swap1\n      pop\n      jump\t// out\n        /* \"contracts/StorageFactory.sol\":181:232  SimpleStorage[] public listOfSimpleStorageContracts */\n    tag_21:\n      0x00\n      dup2\n      dup2\n      sload\n      dup2\n      lt\n      tag_46\n      jumpi\n      0x00\n      dup1\n      revert\n    tag_46:\n      swap1\n      0x00\n      mstore\n      keccak256(0x00, 0x20)\n      add\n      0x00\n      swap2\n      pop\n      sload\n      swap1\n      0x0100\n      exp\n      swap1\n      div\n      0xffffffffffffffffffffffffffffffffffffffff\n      and\n      dup2\n      jump\t// out\n    tag_35:\n      dataSize(sub_0)\n      dup1\n      dataOffset(sub_0)\n      dup4\n      codecopy\n      add\n      swap1\n      jump\t// out\n        /* \"#utility.yul\":88:205   */\n    tag_49:\n        /* \"#utility.yul\":197:198   */\n      0x00\n        /* \"#utility.yul\":194:195   */\n      dup1\n        /* \"#utility.yul\":187:199   */\n      revert\n        /* \"#utility.yul\":334:411   */\n    tag_51:\n        /* \"#utility.yul\":371:378   */\n      0x00\n        /* \"#utility.yul\":400:405   */\n      dup2\n        /* \"#utility.yul\":389:405   */\n      swap1\n      pop\n        /* \"#utility.yul\":334:411   */\n      swap2\n      swap1\n      pop\n      jump\t// out\n        /* \"#utility.yul\":417:539   */\n    tag_52:\n        /* \"#utility.yul\":490:514   */\n      tag_68\n        /* \"#utility.yul\":508:513   */\n      dup2\n        /* \"#utility.yul\":490:514   */\n      tag_51\n      jump\t// in\n    tag_68:\n        /* \"#utility.yul\":483:488   */\n      dup2\n        /* \"#utility.yul\":480:515   */\n      eq\n        /* \"#utility.yul\":470:533   */\n      tag_69\n      jumpi\n        /* \"#utility.yul\":529:530   */\n      0x00\n        /* \"#utility.yul\":526:527   */\n      dup1\n        /* \"#utility.yul\":519:531   */\n      revert\n        /* \"#utility.yul\":470:533   */\n    tag_69:\n        /* \"#utility.yul\":417:539   */\n      pop\n      jump\t// out\n        /* \"#utility.yul\":545:684   */\n    tag_53:\n        /* \"#utility.yul\":591:596   */\n      0x00\n        /* \"#utility.yul\":629:635   */\n      dup2\n        /* \"#utility.yul\":616:636   */\n      calldataload\n        /* \"#utility.yul\":607:636   */\n      swap1\n      pop\n        /* \"#utility.yul\":645:678   */\n      tag_71\n        /* \"#utility.yul\":672:677   */\n      dup2\n        /* \"#utility.yul\":645:678   */\n      tag_52\n      jump\t// in\n    tag_71:\n        /* \"#utility.yul\":545:684   */\n      swap3\n      swap2\n      pop\n      pop\n      jump\t// out\n        /* \"#utility.yul\":690:1164   */\n    tag_9:\n        /* \"#utility.yul\":758:764   */\n      0x00\n        /* \"#utility.yul\":766:772   */\n      dup1\n        /* \"#utility.yul\":815:817   */\n      0x40\n        /* \"#utility.yul\":803:812   */\n      dup4\n        /* \"#utility.yul\":794:801   */\n      dup6\n        /* \"#utility.yul\":790:813   */\n      sub\n        /* \"#utility.yul\":786:818   */\n      slt\n        /* \"#utility.yul\":783:902   */\n      iszero\n      tag_73\n      jumpi\n        /* \"#utility.yul\":821:900   */\n      tag_74\n      tag_49\n      jump\t// in\n    tag_74:\n        /* \"#utility.yul\":783:902   */\n    tag_73:\n        /* \"#utility.yul\":941:942   */\n      0x00\n        /* \"#utility.yul\":966:1019   */\n      tag_75\n        /* \"#utility.yul\":1011:1018   */\n      dup6\n        /* \"#utility.yul\":1002:1008   */\n      dup3\n        /* \"#utility.yul\":991:1000   */\n      dup7\n        /* \"#utility.yul\":987:1009   */\n      add\n        /* \"#utility.yul\":966:1019   */\n      tag_53\n      jump\t// in\n    tag_75:\n        /* \"#utility.yul\":956:1019   */\n      swap3\n      pop\n        /* \"#utility.yul\":912:1029   */\n      pop\n        /* \"#utility.yul\":1068:1070   */\n      0x20\n        /* \"#utility.yul\":1094:1147   */\n      tag_76\n        /* \"#utility.yul\":1139:1146   */\n      dup6\n        /* \"#utility.yul\":1130:1136   */\n      dup3\n        /* \"#utility.yul\":1119:1128   */\n      dup7\n        /* \"#utility.yul\":1115:1137   */\n      add\n        /* \"#utility.yul\":1094:1147   */\n      tag_53\n      jump\t// in\n    tag_76:\n        /* \"#utility.yul\":1084:1147   */\n      swap2\n      pop\n        /* \"#utility.yul\":1039:1157   */\n      pop\n        /* \"#utility.yul\":690:1164   */\n      swap3\n      pop\n      swap3\n      swap1\n      pop\n      jump\t// out\n        /* \"#utility.yul\":1170:1499   */\n    tag_15:\n        /* \"#utility.yul\":1229:1235   */\n      0x00\n        /* \"#utility.yul\":1278:1280   */\n      0x20\n        /* \"#utility.yul\":1266:1275   */\n      dup3\n        /* \"#utility.yul\":1257:1264   */\n      dup5\n        /* \"#utility.yul\":1253:1276   */\n      sub\n        /* \"#utility.yul\":1249:1281   */\n      slt\n        /* \"#utility.yul\":1246:1365   */\n      iszero\n      tag_78\n      jumpi\n        /* \"#utility.yul\":1284:1363   */\n      tag_79\n      tag_49\n      jump\t// in\n    tag_79:\n        /* \"#utility.yul\":1246:1365   */\n    tag_78:\n        /* \"#utility.yul\":1404:1405   */\n      0x00\n        /* \"#utility.yul\":1429:1482   */\n      tag_80\n        /* \"#utility.yul\":1474:1481   */\n      dup5\n        /* \"#utility.yul\":1465:1471   */\n      dup3\n        /* \"#utility.yul\":1454:1463   */\n      dup6\n        /* \"#utility.yul\":1450:1472   */\n      add\n        /* \"#utility.yul\":1429:1482   */\n      tag_53\n      jump\t// in\n    tag_80:\n        /* \"#utility.yul\":1419:1482   */\n      swap2\n      pop\n        /* \"#utility.yul\":1375:1492   */\n      pop\n        /* \"#utility.yul\":1170:1499   */\n      swap3\n      swap2\n      pop\n      pop\n      jump\t// out\n        /* \"#utility.yul\":1505:1623   */\n    tag_54:\n        /* \"#utility.yul\":1592:1616   */\n      tag_82\n        /* \"#utility.yul\":1610:1615   */\n      dup2\n        /* \"#utility.yul\":1592:1616   */\n      tag_51\n      jump\t// in\n    tag_82:\n        /* \"#utility.yul\":1587:1590   */\n      dup3\n        /* \"#utility.yul\":1580:1617   */\n      mstore\n        /* \"#utility.yul\":1505:1623   */\n      pop\n      pop\n      jump\t// out\n        /* \"#utility.yul\":1629:1851   */\n    tag_18:\n        /* \"#utility.yul\":1722:1726   */\n      0x00\n        /* \"#utility.yul\":1760:1762   */\n      0x20\n        /* \"#utility.yul\":1749:1758   */\n      dup3\n        /* \"#utility.yul\":1745:1763   */\n      add\n        /* \"#utility.yul\":1737:1763   */\n      swap1\n      pop\n        /* \"#utility.yul\":1773:1844   */\n      tag_84\n        /* \"#utility.yul\":1841:1842   */\n      0x00\n        /* \"#utility.yul\":1830:1839   */\n      dup4\n        /* \"#utility.yul\":1826:1843   */\n      add\n        /* \"#utility.yul\":1817:1823   */\n      dup5\n        /* \"#utility.yul\":1773:1844   */\n      tag_54\n      jump\t// in\n    tag_84:\n        /* \"#utility.yul\":1629:1851   */\n      swap3\n      swap2\n      pop\n      pop\n      jump\t// out\n        /* \"#utility.yul\":1857:1983   */\n    tag_55:\n        /* \"#utility.yul\":1894:1901   */\n      0x00\n        /* \"#utility.yul\":1934:1976   */\n      0xffffffffffffffffffffffffffffffffffffffff\n        /* \"#utility.yul\":1927:1932   */\n      dup3\n        /* \"#utility.yul\":1923:1977   */\n      and\n        /* \"#utility.yul\":1912:1977   */\n      swap1\n      pop\n        /* \"#utility.yul\":1857:1983   */\n      swap2\n      swap1\n      pop\n      jump\t// out\n        /* \"#utility.yul\":1989:2049   */\n    tag_56:\n        /* \"#utility.yul\":2017:2020   */\n      0x00\n        /* \"#utility.yul\":2038:2043   */\n      dup2\n        /* \"#utility.yul\":2031:2043   */\n      swap1\n      pop\n        /* \"#utility.yul\":1989:2049   */\n      swap2\n      swap1\n      pop\n      jump\t// out\n        /* \"#utility.yul\":2055:2197   */\n    tag_57:\n        /* \"#utility.yul\":2105:2114   */\n      0x00\n        /* \"#utility.yul\":2138:2191   */\n      tag_88\n        /* \"#utility.yul\":2156:2190   */\n      tag_89\n        /* \"#utility.yul\":2165:2189   */\n      tag_90\n        /* \"#utility.yul\":2183:2188   */\n      dup5\n        /* \"#utility.yul\":2165:2189   */\n      tag_55\n      jump\t// in\n    tag_90:\n        /* \"#utility.yul\":2156:2190   */\n      tag_56\n      jump\t// in\n    tag_89:\n        /* \"#utility.yul\":2138:2191   */\n      tag_55\n      jump\t// in\n    tag_88:\n        /* \"#utility.yul\":2125:2191   */\n      swap1\n      pop\n        /* \"#utility.yul\":2055:2197   */\n      swap2\n      swap1\n      pop\n      jump\t// out\n        /* \"#utility.yul\":2203:2329   */\n    tag_58:\n        /* \"#utility.yul\":2253:2262   */\n      0x00\n        /* \"#utility.yul\":2286:2323   */\n      tag_92\n        /* \"#utility.yul\":2317:2322   */\n      dup3\n        /* \"#utility.yul\":2286:2323   */\n      tag_57\n      jump\t// in\n    tag_92:\n        /* \"#utility.yul\":2273:2323   */\n      swap1\n      pop\n        /* \"#utility.yul\":2203:2329   */\n      swap2\n      swap1\n      pop\n      jump\t// out\n        /* \"#utility.yul\":2335:2481   */\n    tag_59:\n        /* \"#utility.yul\":2405:2414   */\n      0x00\n        /* \"#utility.yul\":2438:2475   */\n      tag_94\n        /* \"#utility.yul\":2469:2474   */\n      dup3\n        /* \"#utility.yul\":2438:2475   */\n      tag_58\n      jump\t// in\n    tag_94:\n        /* \"#utility.yul\":2425:2475   */\n      swap1\n      pop\n        /* \"#utility.yul\":2335:2481   */\n      swap2\n      swap1\n      pop\n      jump\t// out\n        /* \"#utility.yul\":2487:2658   */\n    tag_60:\n        /* \"#utility.yul\":2594:2651   */\n      tag_96\n        /* \"#utility.yul\":2645:2650   */\n      dup2\n        /* \"#utility.yul\":2594:2651   */\n      tag_59\n      jump\t// in\n    tag_96:\n        /* \"#utility.yul\":2589:2592   */\n      dup3\n        /* \"#utility.yul\":2582:2652   */\n      mstore\n        /* \"#utility.yul\":2487:2658   */\n      pop\n      pop\n      jump\t// out\n        /* \"#utility.yul\":2664:2926   */\n    tag_23:\n        /* \"#utility.yul\":2777:2781   */\n      0x00\n        /* \"#utility.yul\":2815:2817   */\n      0x20\n        /* \"#utility.yul\":2804:2813   */\n      dup3\n        /* \"#utility.yul\":2800:2818   */\n      add\n        /* \"#utility.yul\":2792:2818   */\n      swap1\n      pop\n        /* \"#utility.yul\":2828:2919   */\n      tag_98\n        /* \"#utility.yul\":2916:2917   */\n      0x00\n        /* \"#utility.yul\":2905:2914   */\n      dup4\n        /* \"#utility.yul\":2901:2918   */\n      add\n        /* \"#utility.yul\":2892:2898   */\n      dup5\n        /* \"#utility.yul\":2828:2919   */\n      tag_60\n      jump\t// in\n    tag_98:\n        /* \"#utility.yul\":2664:2926   */\n      swap3\n      swap2\n      pop\n      pop\n      jump\t// out\n        /* \"#utility.yul\":2932:3112   */\n    tag_27:\n        /* \"#utility.yul\":2980:3057   */\n      0x4e487b7100000000000000000000000000000000000000000000000000000000\n        /* \"#utility.yul\":2977:2978   */\n      0x00\n        /* \"#utility.yul\":2970:3058   */\n      mstore\n        /* \"#utility.yul\":3077:3081   */\n      0x32\n        /* \"#utility.yul\":3074:3075   */\n      0x04\n        /* \"#utility.yul\":3067:3082   */\n      mstore\n        /* \"#utility.yul\":3101:3105   */\n      0x24\n        /* \"#utility.yul\":3098:3099   */\n      0x00\n        /* \"#utility.yul\":3091:3106   */\n      revert\n        /* \"#utility.yul\":3118:3261   */\n    tag_61:\n        /* \"#utility.yul\":3175:3180   */\n      0x00\n        /* \"#utility.yul\":3206:3212   */\n      dup2\n        /* \"#utility.yul\":3200:3213   */\n      mload\n        /* \"#utility.yul\":3191:3213   */\n      swap1\n      pop\n        /* \"#utility.yul\":3222:3255   */\n      tag_101\n        /* \"#utility.yul\":3249:3254   */\n      dup2\n        /* \"#utility.yul\":3222:3255   */\n      tag_52\n      jump\t// in\n    tag_101:\n        /* \"#utility.yul\":3118:3261   */\n      swap3\n      swap2\n      pop\n      pop\n      jump\t// out\n        /* \"#utility.yul\":3267:3618   */\n    tag_45:\n        /* \"#utility.yul\":3337:3343   */\n      0x00\n        /* \"#utility.yul\":3386:3388   */\n      0x20\n        /* \"#utility.yul\":3374:3383   */\n      dup3\n        /* \"#utility.yul\":3365:3372   */\n      dup5\n        /* \"#utility.yul\":3361:3384   */\n      sub\n        /* \"#utility.yul\":3357:3389   */\n      slt\n        /* \"#utility.yul\":3354:3473   */\n      iszero\n      tag_103\n      jumpi\n        /* \"#utility.yul\":3392:3471   */\n      tag_104\n      tag_49\n      jump\t// in\n    tag_104:\n        /* \"#utility.yul\":3354:3473   */\n    tag_103:\n        /* \"#utility.yul\":3512:3513   */\n      0x00\n        /* \"#utility.yul\":3537:3601   */\n      tag_105\n        /* \"#utility.yul\":3593:3600   */\n      dup5\n        /* \"#utility.yul\":3584:3590   */\n      dup3\n        /* \"#utility.yul\":3573:3582   */\n      dup6\n        /* \"#utility.yul\":3569:3591   */\n      add\n        /* \"#utility.yul\":3537:3601   */\n      tag_61\n      jump\t// in\n    tag_105:\n        /* \"#utility.yul\":3527:3601   */\n      swap2\n      pop\n        /* \"#utility.yul\":3483:3611   */\n      pop\n        /* \"#utility.yul\":3267:3618   */\n      swap3\n      swap2\n      pop\n      pop\n      jump\t// out\n    stop\n\n    sub_0: assembly {\n            /* \"contracts/SimpleStorage.sol\":82:1481  contract SimpleStorage{... */\n          mstore(0x40, 0x80)\n          callvalue\n          dup1\n          iszero\n          tag_1\n          jumpi\n          0x00\n          dup1\n          revert\n        tag_1:\n          pop\n          dataSize(sub_0)\n          dup1\n          dataOffset(sub_0)\n          0x00\n          codecopy\n          0x00\n          return\n        stop\n\n        sub_0: assembly {\n                /* \"contracts/SimpleStorage.sol\":82:1481  contract SimpleStorage{... */\n              mstore(0x40, 0x80)\n              callvalue\n              dup1\n              iszero\n              tag_1\n              jumpi\n              0x00\n              dup1\n              revert\n            tag_1:\n              pop\n              jumpi(tag_2, lt(calldatasize, 0x04))\n              shr(0xe0, calldataload(0x00))\n              dup1\n              0x6057361d\n              eq\n              tag_3\n              jumpi\n              dup1\n              0x6f760f41\n              eq\n              tag_4\n              jumpi\n              dup1\n              0xa2f9eac6\n              eq\n              tag_5\n              jumpi\n              dup1\n              0xa6b7fc5b\n              eq\n              tag_6\n              jumpi\n              dup1\n              0xbabcb2cf\n              eq\n              tag_7\n              jumpi\n            tag_2:\n              0x00\n              dup1\n              revert\n                /* \"contracts/SimpleStorage.sol\":830:925  function store(uint256 _faviourNumber) public {... */\n            tag_3:\n              tag_8\n              0x04\n              dup1\n              calldatasize\n              sub\n              dup2\n              add\n              swap1\n              tag_9\n              swap2\n              swap1\n              tag_10\n              jump\t// in\n            tag_9:\n              tag_11\n              jump\t// in\n            tag_8:\n              stop\n                /* \"contracts/SimpleStorage.sol\":1126:1478  function addPerson(string memory _name , uint256 _favoriteNumber) public  {... */\n            tag_4:\n              tag_12\n              0x04\n              dup1\n              calldatasize\n              sub\n              dup2\n              add\n              swap1\n              tag_13\n              swap2\n              swap1\n              tag_14\n              jump\t// in\n            tag_13:\n              tag_15\n              jump\t// in\n            tag_12:\n              stop\n                /* \"contracts/SimpleStorage.sol\":645:669  Person [] public persons */\n            tag_5:\n              tag_16\n              0x04\n              dup1\n              calldatasize\n              sub\n              dup2\n              add\n              swap1\n              tag_17\n              swap2\n              swap1\n              tag_10\n              jump\t// in\n            tag_17:\n              tag_18\n              jump\t// in\n            tag_16:\n              mload(0x40)\n              tag_19\n              swap3\n              swap2\n              swap1\n              tag_20\n              jump\t// in\n            tag_19:\n              mload(0x40)\n              dup1\n              swap2\n              sub\n              swap1\n              return\n                /* \"contracts/SimpleStorage.sol\":1030:1120  function retrive() public view   returns(uint256){... */\n            tag_6:\n              tag_21\n              tag_22\n              jump\t// in\n            tag_21:\n              mload(0x40)\n              tag_23\n              swap2\n              swap1\n              tag_24\n              jump\t// in\n            tag_23:\n              mload(0x40)\n              dup1\n              swap2\n              sub\n              swap1\n              return\n                /* \"contracts/SimpleStorage.sol\":761:816  mapping (string => uint256) public nameToFaviourtNumber */\n            tag_7:\n              tag_25\n              0x04\n              dup1\n              calldatasize\n              sub\n              dup2\n              add\n              swap1\n              tag_26\n              swap2\n              swap1\n              tag_27\n              jump\t// in\n            tag_26:\n              tag_28\n              jump\t// in\n            tag_25:\n              mload(0x40)\n              tag_29\n              swap2\n              swap1\n              tag_24\n              jump\t// in\n            tag_29:\n              mload(0x40)\n              dup1\n              swap2\n              sub\n              swap1\n              return\n                /* \"contracts/SimpleStorage.sol\":830:925  function store(uint256 _faviourNumber) public {... */\n            tag_11:\n                /* \"contracts/SimpleStorage.sol\":903:917  _faviourNumber */\n              dup1\n                /* \"contracts/SimpleStorage.sol\":887:902  myFaviourNumber */\n              0x00\n                /* \"contracts/SimpleStorage.sol\":887:917  myFaviourNumber=_faviourNumber */\n              dup2\n              swap1\n              sstore\n              pop\n                /* \"contracts/SimpleStorage.sol\":830:925  function store(uint256 _faviourNumber) public {... */\n              pop\n              jump\t// out\n                /* \"contracts/SimpleStorage.sol\":1126:1478  function addPerson(string memory _name , uint256 _favoriteNumber) public  {... */\n            tag_15:\n                /* \"contracts/SimpleStorage.sol\":1211:1234  Person memory newPerson */\n              0x00\n                /* \"contracts/SimpleStorage.sol\":1235:1265  Person (_favoriteNumber,_name) */\n              mload(0x40)\n              dup1\n              0x40\n              add\n              0x40\n              mstore\n              dup1\n                /* \"contracts/SimpleStorage.sol\":1243:1258  _favoriteNumber */\n              dup4\n                /* \"contracts/SimpleStorage.sol\":1235:1265  Person (_favoriteNumber,_name) */\n              dup2\n              mstore\n              0x20\n              add\n                /* \"contracts/SimpleStorage.sol\":1259:1264  _name */\n              dup5\n                /* \"contracts/SimpleStorage.sol\":1235:1265  Person (_favoriteNumber,_name) */\n              dup2\n              mstore\n              pop\n                /* \"contracts/SimpleStorage.sol\":1211:1265  Person memory newPerson=Person (_favoriteNumber,_name) */\n              swap1\n              pop\n                /* \"contracts/SimpleStorage.sol\":1304:1319  _favoriteNumber */\n              dup2\n                /* \"contracts/SimpleStorage.sol\":1276:1296  nameToFaviourtNumber */\n              0x02\n                /* \"contracts/SimpleStorage.sol\":1297:1302  _name */\n              dup5\n                /* \"contracts/SimpleStorage.sol\":1276:1303  nameToFaviourtNumber[_name] */\n              mload(0x40)\n              tag_32\n              swap2\n              swap1\n              tag_33\n              jump\t// in\n            tag_32:\n              swap1\n              dup2\n              mstore\n              0x20\n              add\n              mload(0x40)\n              dup1\n              swap2\n              sub\n              swap1\n              keccak256\n                /* \"contracts/SimpleStorage.sol\":1276:1319  nameToFaviourtNumber[_name]=_favoriteNumber */\n              dup2\n              swap1\n              sstore\n              pop\n                /* \"contracts/SimpleStorage.sol\":1447:1454  persons */\n              0x01\n                /* \"contracts/SimpleStorage.sol\":1460:1469  newPerson */\n              dup2\n                /* \"contracts/SimpleStorage.sol\":1447:1470  persons.push(newPerson) */\n              swap1\n              dup1\n              0x01\n              dup2\n              sload\n              add\n              dup1\n              dup3\n              sstore\n              dup1\n              swap2\n              pop\n              pop\n              0x01\n              swap1\n              sub\n              swap1\n              0x00\n              mstore\n              keccak256(0x00, 0x20)\n              swap1\n              0x02\n              mul\n              add\n              0x00\n              swap1\n              swap2\n              swap1\n              swap2\n              swap1\n              swap2\n              pop\n              0x00\n              dup3\n              add\n              mload\n              dup2\n              0x00\n              add\n              sstore\n              0x20\n              dup3\n              add\n              mload\n              dup2\n              0x01\n              add\n              swap1\n              dup2\n              tag_35\n              swap2\n              swap1\n              tag_36\n              jump\t// in\n            tag_35:\n              pop\n              pop\n              pop\n                /* \"contracts/SimpleStorage.sol\":1200:1478  {... */\n              pop\n                /* \"contracts/SimpleStorage.sol\":1126:1478  function addPerson(string memory _name , uint256 _favoriteNumber) public  {... */\n              pop\n              pop\n              jump\t// out\n                /* \"contracts/SimpleStorage.sol\":645:669  Person [] public persons */\n            tag_18:\n              0x01\n              dup2\n              dup2\n              sload\n              dup2\n              lt\n              tag_37\n              jumpi\n              0x00\n              dup1\n              revert\n            tag_37:\n              swap1\n              0x00\n              mstore\n              keccak256(0x00, 0x20)\n              swap1\n              0x02\n              mul\n              add\n              0x00\n              swap2\n              pop\n              swap1\n              pop\n              dup1\n              0x00\n              add\n              sload\n              swap1\n              dup1\n              0x01\n              add\n              dup1\n              sload\n              tag_39\n              swap1\n              tag_40\n              jump\t// in\n            tag_39:\n              dup1\n              0x1f\n              add\n              0x20\n              dup1\n              swap2\n              div\n              mul\n              0x20\n              add\n              mload(0x40)\n              swap1\n              dup2\n              add\n              0x40\n              mstore\n              dup1\n              swap3\n              swap2\n              swap1\n              dup2\n              dup2\n              mstore\n              0x20\n              add\n              dup3\n              dup1\n              sload\n              tag_41\n              swap1\n              tag_40\n              jump\t// in\n            tag_41:\n              dup1\n              iszero\n              tag_42\n              jumpi\n              dup1\n              0x1f\n              lt\n              tag_43\n              jumpi\n              0x0100\n              dup1\n              dup4\n              sload\n              div\n              mul\n              dup4\n              mstore\n              swap2\n              0x20\n              add\n              swap2\n              jump(tag_42)\n            tag_43:\n              dup3\n              add\n              swap2\n              swap1\n              0x00\n              mstore\n              keccak256(0x00, 0x20)\n              swap1\n            tag_44:\n              dup2\n              sload\n              dup2\n              mstore\n              swap1\n              0x01\n              add\n              swap1\n              0x20\n              add\n              dup1\n              dup4\n              gt\n              tag_44\n              jumpi\n              dup3\n              swap1\n              sub\n              0x1f\n              and\n              dup3\n              add\n              swap2\n            tag_42:\n              pop\n              pop\n              pop\n              pop\n              pop\n              swap1\n              pop\n              dup3\n              jump\t// out\n                /* \"contracts/SimpleStorage.sol\":1030:1120  function retrive() public view   returns(uint256){... */\n            tag_22:\n                /* \"contracts/SimpleStorage.sol\":1071:1078  uint256 */\n              0x00\n                /* \"contracts/SimpleStorage.sol\":1097:1112  myFaviourNumber */\n              dup1\n              sload\n                /* \"contracts/SimpleStorage.sol\":1090:1112  return myFaviourNumber */\n              swap1\n              pop\n                /* \"contracts/SimpleStorage.sol\":1030:1120  function retrive() public view   returns(uint256){... */\n              swap1\n              jump\t// out\n                /* \"contracts/SimpleStorage.sol\":761:816  mapping (string => uint256) public nameToFaviourtNumber */\n            tag_28:\n              0x02\n              dup2\n              dup1\n              mload\n              0x20\n              dup2\n              add\n              dup3\n              add\n              dup1\n              mload\n              dup5\n              dup3\n              mstore\n              0x20\n              dup4\n              add\n              0x20\n              dup6\n              add\n              keccak256\n              dup2\n              dup4\n              mstore\n              dup1\n              swap6\n              pop\n              pop\n              pop\n              pop\n              pop\n              pop\n              0x00\n              swap2\n              pop\n              swap1\n              pop\n              sload\n              dup2\n              jump\t// out\n                /* \"#utility.yul\":7:82   */\n            tag_46:\n                /* \"#utility.yul\":40:46   */\n              0x00\n                /* \"#utility.yul\":73:75   */\n              0x40\n                /* \"#utility.yul\":67:76   */\n              mload\n                /* \"#utility.yul\":57:76   */\n              swap1\n              pop\n                /* \"#utility.yul\":7:82   */\n              swap1\n              jump\t// out\n                /* \"#utility.yul\":88:205   */\n            tag_47:\n                /* \"#utility.yul\":197:198   */\n              0x00\n                /* \"#utility.yul\":194:195   */\n              dup1\n                /* \"#utility.yul\":187:199   */\n              revert\n                /* \"#utility.yul\":211:328   */\n            tag_48:\n                /* \"#utility.yul\":320:321   */\n              0x00\n                /* \"#utility.yul\":317:318   */\n              dup1\n                /* \"#utility.yul\":310:322   */\n              revert\n                /* \"#utility.yul\":334:411   */\n            tag_49:\n                /* \"#utility.yul\":371:378   */\n              0x00\n                /* \"#utility.yul\":400:405   */\n              dup2\n                /* \"#utility.yul\":389:405   */\n              swap1\n              pop\n                /* \"#utility.yul\":334:411   */\n              swap2\n              swap1\n              pop\n              jump\t// out\n                /* \"#utility.yul\":417:539   */\n            tag_50:\n                /* \"#utility.yul\":490:514   */\n              tag_91\n                /* \"#utility.yul\":508:513   */\n              dup2\n                /* \"#utility.yul\":490:514   */\n              tag_49\n              jump\t// in\n            tag_91:\n                /* \"#utility.yul\":483:488   */\n              dup2\n                /* \"#utility.yul\":480:515   */\n              eq\n                /* \"#utility.yul\":470:533   */\n              tag_92\n              jumpi\n                /* \"#utility.yul\":529:530   */\n              0x00\n                /* \"#utility.yul\":526:527   */\n              dup1\n                /* \"#utility.yul\":519:531   */\n              revert\n                /* \"#utility.yul\":470:533   */\n            tag_92:\n                /* \"#utility.yul\":417:539   */\n              pop\n              jump\t// out\n                /* \"#utility.yul\":545:684   */\n            tag_51:\n                /* \"#utility.yul\":591:596   */\n              0x00\n                /* \"#utility.yul\":629:635   */\n              dup2\n                /* \"#utility.yul\":616:636   */\n              calldataload\n                /* \"#utility.yul\":607:636   */\n              swap1\n              pop\n                /* \"#utility.yul\":645:678   */\n              tag_94\n                /* \"#utility.yul\":672:677   */\n              dup2\n                /* \"#utility.yul\":645:678   */\n              tag_50\n              jump\t// in\n            tag_94:\n                /* \"#utility.yul\":545:684   */\n              swap3\n              swap2\n              pop\n              pop\n              jump\t// out\n                /* \"#utility.yul\":690:1019   */\n            tag_10:\n                /* \"#utility.yul\":749:755   */\n              0x00\n                /* \"#utility.yul\":798:800   */\n              0x20\n                /* \"#utility.yul\":786:795   */\n              dup3\n                /* \"#utility.yul\":777:784   */\n              dup5\n                /* \"#utility.yul\":773:796   */\n              sub\n                /* \"#utility.yul\":769:801   */\n              slt\n                /* \"#utility.yul\":766:885   */\n              iszero\n              tag_96\n              jumpi\n                /* \"#utility.yul\":804:883   */\n              tag_97\n              tag_47\n              jump\t// in\n            tag_97:\n                /* \"#utility.yul\":766:885   */\n            tag_96:\n                /* \"#utility.yul\":924:925   */\n              0x00\n                /* \"#utility.yul\":949:1002   */\n              tag_98\n                /* \"#utility.yul\":994:1001   */\n              dup5\n                /* \"#utility.yul\":985:991   */\n              dup3\n                /* \"#utility.yul\":974:983   */\n              dup6\n                /* \"#utility.yul\":970:992   */\n              add\n                /* \"#utility.yul\":949:1002   */\n              tag_51\n              jump\t// in\n            tag_98:\n                /* \"#utility.yul\":939:1002   */\n              swap2\n              pop\n                /* \"#utility.yul\":895:1012   */\n              pop\n                /* \"#utility.yul\":690:1019   */\n              swap3\n              swap2\n              pop\n              pop\n              jump\t// out\n                /* \"#utility.yul\":1025:1142   */\n            tag_52:\n                /* \"#utility.yul\":1134:1135   */\n              0x00\n                /* \"#utility.yul\":1131:1132   */\n              dup1\n                /* \"#utility.yul\":1124:1136   */\n              revert\n                /* \"#utility.yul\":1148:1265   */\n            tag_53:\n                /* \"#utility.yul\":1257:1258   */\n              0x00\n                /* \"#utility.yul\":1254:1255   */\n              dup1\n                /* \"#utility.yul\":1247:1259   */\n              revert\n                /* \"#utility.yul\":1271:1373   */\n            tag_54:\n                /* \"#utility.yul\":1312:1318   */\n              0x00\n                /* \"#utility.yul\":1363:1365   */\n              0x1f\n                /* \"#utility.yul\":1359:1366   */\n              not\n                /* \"#utility.yul\":1354:1356   */\n              0x1f\n                /* \"#utility.yul\":1347:1352   */\n              dup4\n                /* \"#utility.yul\":1343:1357   */\n              add\n                /* \"#utility.yul\":1339:1367   */\n              and\n                /* \"#utility.yul\":1329:1367   */\n              swap1\n              pop\n                /* \"#utility.yul\":1271:1373   */\n              swap2\n              swap1\n              pop\n              jump\t// out\n                /* \"#utility.yul\":1379:1559   */\n            tag_55:\n                /* \"#utility.yul\":1427:1504   */\n              0x4e487b7100000000000000000000000000000000000000000000000000000000\n                /* \"#utility.yul\":1424:1425   */\n              0x00\n                /* \"#utility.yul\":1417:1505   */\n              mstore\n                /* \"#utility.yul\":1524:1528   */\n              0x41\n                /* \"#utility.yul\":1521:1522   */\n              0x04\n                /* \"#utility.yul\":1514:1529   */\n              mstore\n                /* \"#utility.yul\":1548:1552   */\n              0x24\n                /* \"#utility.yul\":1545:1546   */\n              0x00\n                /* \"#utility.yul\":1538:1553   */\n              revert\n                /* \"#utility.yul\":1565:1846   */\n            tag_56:\n                /* \"#utility.yul\":1648:1675   */\n              tag_104\n                /* \"#utility.yul\":1670:1674   */\n              dup3\n                /* \"#utility.yul\":1648:1675   */\n              tag_54\n              jump\t// in\n            tag_104:\n                /* \"#utility.yul\":1640:1646   */\n              dup2\n                /* \"#utility.yul\":1636:1676   */\n              add\n                /* \"#utility.yul\":1778:1784   */\n              dup2\n                /* \"#utility.yul\":1766:1776   */\n              dup2\n                /* \"#utility.yul\":1763:1785   */\n              lt\n                /* \"#utility.yul\":1742:1760   */\n              0xffffffffffffffff\n                /* \"#utility.yul\":1730:1740   */\n              dup3\n                /* \"#utility.yul\":1727:1761   */\n              gt\n                /* \"#utility.yul\":1724:1786   */\n              or\n                /* \"#utility.yul\":1721:1809   */\n              iszero\n              tag_105\n              jumpi\n                /* \"#utility.yul\":1789:1807   */\n              tag_106\n              tag_55\n              jump\t// in\n            tag_106:\n                /* \"#utility.yul\":1721:1809   */\n            tag_105:\n                /* \"#utility.yul\":1829:1839   */\n              dup1\n                /* \"#utility.yul\":1825:1827   */\n              0x40\n                /* \"#utility.yul\":1818:1840   */\n              mstore\n                /* \"#utility.yul\":1608:1846   */\n              pop\n                /* \"#utility.yul\":1565:1846   */\n              pop\n              pop\n              jump\t// out\n                /* \"#utility.yul\":1852:1981   */\n            tag_57:\n                /* \"#utility.yul\":1886:1892   */\n              0x00\n                /* \"#utility.yul\":1913:1933   */\n              tag_108\n              tag_46\n              jump\t// in\n            tag_108:\n                /* \"#utility.yul\":1903:1933   */\n              swap1\n              pop\n                /* \"#utility.yul\":1942:1975   */\n              tag_109\n                /* \"#utility.yul\":1970:1974   */\n              dup3\n                /* \"#utility.yul\":1962:1968   */\n              dup3\n                /* \"#utility.yul\":1942:1975   */\n              tag_56\n              jump\t// in\n            tag_109:\n                /* \"#utility.yul\":1852:1981   */\n              swap2\n              swap1\n              pop\n              jump\t// out\n                /* \"#utility.yul\":1987:2295   */\n            tag_58:\n                /* \"#utility.yul\":2049:2053   */\n              0x00\n                /* \"#utility.yul\":2139:2157   */\n              0xffffffffffffffff\n                /* \"#utility.yul\":2131:2137   */\n              dup3\n                /* \"#utility.yul\":2128:2158   */\n              gt\n                /* \"#utility.yul\":2125:2181   */\n              iszero\n              tag_111\n              jumpi\n                /* \"#utility.yul\":2161:2179   */\n              tag_112\n              tag_55\n              jump\t// in\n            tag_112:\n                /* \"#utility.yul\":2125:2181   */\n            tag_111:\n                /* \"#utility.yul\":2199:2228   */\n              tag_113\n                /* \"#utility.yul\":2221:2227   */\n              dup3\n                /* \"#utility.yul\":2199:2228   */\n              tag_54\n              jump\t// in\n            tag_113:\n                /* \"#utility.yul\":2191:2228   */\n              swap1\n              pop\n                /* \"#utility.yul\":2283:2287   */\n              0x20\n                /* \"#utility.yul\":2277:2281   */\n              dup2\n                /* \"#utility.yul\":2273:2288   */\n              add\n                /* \"#utility.yul\":2265:2288   */\n              swap1\n              pop\n                /* \"#utility.yul\":1987:2295   */\n              swap2\n              swap1\n              pop\n              jump\t// out\n                /* \"#utility.yul\":2301:2447   */\n            tag_59:\n                /* \"#utility.yul\":2398:2404   */\n              dup3\n                /* \"#utility.yul\":2393:2396   */\n              dup2\n                /* \"#utility.yul\":2388:2391   */\n              dup4\n                /* \"#utility.yul\":2375:2405   */\n              calldatacopy\n                /* \"#utility.yul\":2439:2440   */\n              0x00\n                /* \"#utility.yul\":2430:2436   */\n              dup4\n                /* \"#utility.yul\":2425:2428   */\n              dup4\n                /* \"#utility.yul\":2421:2437   */\n              add\n                /* \"#utility.yul\":2414:2441   */\n              mstore\n                /* \"#utility.yul\":2301:2447   */\n              pop\n              pop\n              pop\n              jump\t// out\n                /* \"#utility.yul\":2453:2878   */\n            tag_60:\n                /* \"#utility.yul\":2531:2536   */\n              0x00\n                /* \"#utility.yul\":2556:2622   */\n              tag_116\n                /* \"#utility.yul\":2572:2621   */\n              tag_117\n                /* \"#utility.yul\":2614:2620   */\n              dup5\n                /* \"#utility.yul\":2572:2621   */\n              tag_58\n              jump\t// in\n            tag_117:\n                /* \"#utility.yul\":2556:2622   */\n              tag_57\n              jump\t// in\n            tag_116:\n                /* \"#utility.yul\":2547:2622   */\n              swap1\n              pop\n                /* \"#utility.yul\":2645:2651   */\n              dup3\n                /* \"#utility.yul\":2638:2643   */\n              dup2\n                /* \"#utility.yul\":2631:2652   */\n              mstore\n                /* \"#utility.yul\":2683:2687   */\n              0x20\n                /* \"#utility.yul\":2676:2681   */\n              dup2\n                /* \"#utility.yul\":2672:2688   */\n              add\n                /* \"#utility.yul\":2721:2724   */\n              dup5\n                /* \"#utility.yul\":2712:2718   */\n              dup5\n                /* \"#utility.yul\":2707:2710   */\n              dup5\n                /* \"#utility.yul\":2703:2719   */\n              add\n                /* \"#utility.yul\":2700:2725   */\n              gt\n                /* \"#utility.yul\":2697:2809   */\n              iszero\n              tag_118\n              jumpi\n                /* \"#utility.yul\":2728:2807   */\n              tag_119\n              tag_53\n              jump\t// in\n            tag_119:\n                /* \"#utility.yul\":2697:2809   */\n            tag_118:\n                /* \"#utility.yul\":2818:2872   */\n              tag_120\n                /* \"#utility.yul\":2865:2871   */\n              dup5\n                /* \"#utility.yul\":2860:2863   */\n              dup3\n                /* \"#utility.yul\":2855:2858   */\n              dup6\n                /* \"#utility.yul\":2818:2872   */\n              tag_59\n              jump\t// in\n            tag_120:\n                /* \"#utility.yul\":2537:2878   */\n              pop\n                /* \"#utility.yul\":2453:2878   */\n              swap4\n              swap3\n              pop\n              pop\n              pop\n              jump\t// out\n                /* \"#utility.yul\":2898:3238   */\n            tag_61:\n                /* \"#utility.yul\":2954:2959   */\n              0x00\n                /* \"#utility.yul\":3003:3006   */\n              dup3\n                /* \"#utility.yul\":2996:3000   */\n              0x1f\n                /* \"#utility.yul\":2988:2994   */\n              dup4\n                /* \"#utility.yul\":2984:3001   */\n              add\n                /* \"#utility.yul\":2980:3007   */\n              slt\n                /* \"#utility.yul\":2970:3092   */\n              tag_122\n              jumpi\n                /* \"#utility.yul\":3011:3090   */\n              tag_123\n              tag_52\n              jump\t// in\n            tag_123:\n                /* \"#utility.yul\":2970:3092   */\n            tag_122:\n                /* \"#utility.yul\":3128:3134   */\n              dup2\n                /* \"#utility.yul\":3115:3135   */\n              calldataload\n                /* \"#utility.yul\":3153:3232   */\n              tag_124\n                /* \"#utility.yul\":3228:3231   */\n              dup5\n                /* \"#utility.yul\":3220:3226   */\n              dup3\n                /* \"#utility.yul\":3213:3217   */\n              0x20\n                /* \"#utility.yul\":3205:3211   */\n              dup7\n                /* \"#utility.yul\":3201:3218   */\n              add\n                /* \"#utility.yul\":3153:3232   */\n              tag_60\n              jump\t// in\n            tag_124:\n                /* \"#utility.yul\":3144:3232   */\n              swap2\n              pop\n                /* \"#utility.yul\":2960:3238   */\n              pop\n                /* \"#utility.yul\":2898:3238   */\n              swap3\n              swap2\n              pop\n              pop\n              jump\t// out\n                /* \"#utility.yul\":3244:3898   */\n            tag_14:\n                /* \"#utility.yul\":3322:3328   */\n              0x00\n                /* \"#utility.yul\":3330:3336   */\n              dup1\n                /* \"#utility.yul\":3379:3381   */\n              0x40\n                /* \"#utility.yul\":3367:3376   */\n              dup4\n                /* \"#utility.yul\":3358:3365   */\n              dup6\n                /* \"#utility.yul\":3354:3377   */\n              sub\n                /* \"#utility.yul\":3350:3382   */\n              slt\n                /* \"#utility.yul\":3347:3466   */\n              iszero\n              tag_126\n              jumpi\n                /* \"#utility.yul\":3385:3464   */\n              tag_127\n              tag_47\n              jump\t// in\n            tag_127:\n                /* \"#utility.yul\":3347:3466   */\n            tag_126:\n                /* \"#utility.yul\":3533:3534   */\n              0x00\n                /* \"#utility.yul\":3522:3531   */\n              dup4\n                /* \"#utility.yul\":3518:3535   */\n              add\n                /* \"#utility.yul\":3505:3536   */\n              calldataload\n                /* \"#utility.yul\":3563:3581   */\n              0xffffffffffffffff\n                /* \"#utility.yul\":3555:3561   */\n              dup2\n                /* \"#utility.yul\":3552:3582   */\n              gt\n                /* \"#utility.yul\":3549:3666   */\n              iszero\n              tag_128\n              jumpi\n                /* \"#utility.yul\":3585:3664   */\n              tag_129\n              tag_48\n              jump\t// in\n            tag_129:\n                /* \"#utility.yul\":3549:3666   */\n            tag_128:\n                /* \"#utility.yul\":3690:3753   */\n              tag_130\n                /* \"#utility.yul\":3745:3752   */\n              dup6\n                /* \"#utility.yul\":3736:3742   */\n              dup3\n                /* \"#utility.yul\":3725:3734   */\n              dup7\n                /* \"#utility.yul\":3721:3743   */\n              add\n                /* \"#utility.yul\":3690:3753   */\n              tag_61\n              jump\t// in\n            tag_130:\n                /* \"#utility.yul\":3680:3753   */\n              swap3\n              pop\n                /* \"#utility.yul\":3476:3763   */\n              pop\n                /* \"#utility.yul\":3802:3804   */\n              0x20\n                /* \"#utility.yul\":3828:3881   */\n              tag_131\n                /* \"#utility.yul\":3873:3880   */\n              dup6\n                /* \"#utility.yul\":3864:3870   */\n              dup3\n                /* \"#utility.yul\":3853:3862   */\n              dup7\n                /* \"#utility.yul\":3849:3871   */\n              add\n                /* \"#utility.yul\":3828:3881   */\n              tag_51\n              jump\t// in\n            tag_131:\n                /* \"#utility.yul\":3818:3881   */\n              swap2\n              pop\n                /* \"#utility.yul\":3773:3891   */\n              pop\n                /* \"#utility.yul\":3244:3898   */\n              swap3\n              pop\n              swap3\n              swap1\n              pop\n              jump\t// out\n                /* \"#utility.yul\":3904:4022   */\n            tag_62:\n                /* \"#utility.yul\":3991:4015   */\n              tag_133\n                /* \"#utility.yul\":4009:4014   */\n              dup2\n                /* \"#utility.yul\":3991:4015   */\n              tag_49\n              jump\t// in\n            tag_133:\n                /* \"#utility.yul\":3986:3989   */\n              dup3\n                /* \"#utility.yul\":3979:4016   */\n              mstore\n                /* \"#utility.yul\":3904:4022   */\n              pop\n              pop\n              jump\t// out\n                /* \"#utility.yul\":4028:4127   */\n            tag_63:\n                /* \"#utility.yul\":4080:4086   */\n              0x00\n                /* \"#utility.yul\":4114:4119   */\n              dup2\n                /* \"#utility.yul\":4108:4120   */\n              mload\n                /* \"#utility.yul\":4098:4120   */\n              swap1\n              pop\n                /* \"#utility.yul\":4028:4127   */\n              swap2\n              swap1\n              pop\n              jump\t// out\n                /* \"#utility.yul\":4133:4302   */\n            tag_64:\n                /* \"#utility.yul\":4217:4228   */\n              0x00\n                /* \"#utility.yul\":4251:4257   */\n              dup3\n                /* \"#utility.yul\":4246:4249   */\n              dup3\n                /* \"#utility.yul\":4239:4258   */\n              mstore\n                /* \"#utility.yul\":4291:4295   */\n              0x20\n                /* \"#utility.yul\":4286:4289   */\n              dup3\n                /* \"#utility.yul\":4282:4296   */\n              add\n                /* \"#utility.yul\":4267:4296   */\n              swap1\n              pop\n                /* \"#utility.yul\":4133:4302   */\n              swap3\n              swap2\n              pop\n              pop\n              jump\t// out\n                /* \"#utility.yul\":4308:4554   */\n            tag_65:\n                /* \"#utility.yul\":4389:4390   */\n              0x00\n                /* \"#utility.yul\":4399:4512   */\n            tag_137:\n                /* \"#utility.yul\":4413:4419   */\n              dup4\n                /* \"#utility.yul\":4410:4411   */\n              dup2\n                /* \"#utility.yul\":4407:4420   */\n              lt\n                /* \"#utility.yul\":4399:4512   */\n              iszero\n              tag_139\n              jumpi\n                /* \"#utility.yul\":4498:4499   */\n              dup1\n                /* \"#utility.yul\":4493:4496   */\n              dup3\n                /* \"#utility.yul\":4489:4500   */\n              add\n                /* \"#utility.yul\":4483:4501   */\n              mload\n                /* \"#utility.yul\":4479:4480   */\n              dup2\n                /* \"#utility.yul\":4474:4477   */\n              dup5\n                /* \"#utility.yul\":4470:4481   */\n              add\n                /* \"#utility.yul\":4463:4502   */\n              mstore\n                /* \"#utility.yul\":4435:4437   */\n              0x20\n                /* \"#utility.yul\":4432:4433   */\n              dup2\n                /* \"#utility.yul\":4428:4438   */\n              add\n                /* \"#utility.yul\":4423:4438   */\n              swap1\n              pop\n                /* \"#utility.yul\":4399:4512   */\n              jump(tag_137)\n            tag_139:\n                /* \"#utility.yul\":4546:4547   */\n              0x00\n                /* \"#utility.yul\":4537:4543   */\n              dup5\n                /* \"#utility.yul\":4532:4535   */\n              dup5\n                /* \"#utility.yul\":4528:4544   */\n              add\n                /* \"#utility.yul\":4521:4548   */\n              mstore\n                /* \"#utility.yul\":4370:4554   */\n              pop\n                /* \"#utility.yul\":4308:4554   */\n              pop\n              pop\n              pop\n              jump\t// out\n                /* \"#utility.yul\":4560:4937   */\n            tag_66:\n                /* \"#utility.yul\":4648:4651   */\n              0x00\n                /* \"#utility.yul\":4676:4715   */\n              tag_141\n                /* \"#utility.yul\":4709:4714   */\n              dup3\n                /* \"#utility.yul\":4676:4715   */\n              tag_63\n              jump\t// in\n            tag_141:\n                /* \"#utility.yul\":4731:4802   */\n              tag_142\n                /* \"#utility.yul\":4795:4801   */\n              dup2\n                /* \"#utility.yul\":4790:4793   */\n              dup6\n                /* \"#utility.yul\":4731:4802   */\n              tag_64\n              jump\t// in\n            tag_142:\n                /* \"#utility.yul\":4724:4802   */\n              swap4\n              pop\n                /* \"#utility.yul\":4811:4876   */\n              tag_143\n                /* \"#utility.yul\":4869:4875   */\n              dup2\n                /* \"#utility.yul\":4864:4867   */\n              dup6\n                /* \"#utility.yul\":4857:4861   */\n              0x20\n                /* \"#utility.yul\":4850:4855   */\n              dup7\n                /* \"#utility.yul\":4846:4862   */\n              add\n                /* \"#utility.yul\":4811:4876   */\n              tag_65\n              jump\t// in\n            tag_143:\n                /* \"#utility.yul\":4901:4930   */\n              tag_144\n                /* \"#utility.yul\":4923:4929   */\n              dup2\n                /* \"#utility.yul\":4901:4930   */\n              tag_54\n              jump\t// in\n            tag_144:\n                /* \"#utility.yul\":4896:4899   */\n              dup5\n                /* \"#utility.yul\":4892:4931   */\n              add\n                /* \"#utility.yul\":4885:4931   */\n              swap2\n              pop\n                /* \"#utility.yul\":4652:4937   */\n              pop\n                /* \"#utility.yul\":4560:4937   */\n              swap3\n              swap2\n              pop\n              pop\n              jump\t// out\n                /* \"#utility.yul\":4943:5366   */\n            tag_20:\n                /* \"#utility.yul\":5084:5088   */\n              0x00\n                /* \"#utility.yul\":5122:5124   */\n              0x40\n                /* \"#utility.yul\":5111:5120   */\n              dup3\n                /* \"#utility.yul\":5107:5125   */\n              add\n                /* \"#utility.yul\":5099:5125   */\n              swap1\n              pop\n                /* \"#utility.yul\":5135:5206   */\n              tag_146\n                /* \"#utility.yul\":5203:5204   */\n              0x00\n                /* \"#utility.yul\":5192:5201   */\n              dup4\n                /* \"#utility.yul\":5188:5205   */\n              add\n                /* \"#utility.yul\":5179:5185   */\n              dup6\n                /* \"#utility.yul\":5135:5206   */\n              tag_62\n              jump\t// in\n            tag_146:\n                /* \"#utility.yul\":5253:5262   */\n              dup2\n                /* \"#utility.yul\":5247:5251   */\n              dup2\n                /* \"#utility.yul\":5243:5263   */\n              sub\n                /* \"#utility.yul\":5238:5240   */\n              0x20\n                /* \"#utility.yul\":5227:5236   */\n              dup4\n                /* \"#utility.yul\":5223:5241   */\n              add\n                /* \"#utility.yul\":5216:5264   */\n              mstore\n                /* \"#utility.yul\":5281:5359   */\n              tag_147\n                /* \"#utility.yul\":5354:5358   */\n              dup2\n                /* \"#utility.yul\":5345:5351   */\n              dup5\n                /* \"#utility.yul\":5281:5359   */\n              tag_66\n              jump\t// in\n            tag_147:\n                /* \"#utility.yul\":5273:5359   */\n              swap1\n              pop\n                /* \"#utility.yul\":4943:5366   */\n              swap4\n              swap3\n              pop\n              pop\n              pop\n              jump\t// out\n                /* \"#utility.yul\":5372:5594   */\n            tag_24:\n                /* \"#utility.yul\":5465:5469   */\n              0x00\n                /* \"#utility.yul\":5503:5505   */\n              0x20\n                /* \"#utility.yul\":5492:5501   */\n              dup3\n                /* \"#utility.yul\":5488:5506   */\n              add\n                /* \"#utility.yul\":5480:5506   */\n              swap1\n              pop\n                /* \"#utility.yul\":5516:5587   */\n              tag_149\n                /* \"#utility.yul\":5584:5585   */\n              0x00\n                /* \"#utility.yul\":5573:5582   */\n              dup4\n                /* \"#utility.yul\":5569:5586   */\n              add\n                /* \"#utility.yul\":5560:5566   */\n              dup5\n                /* \"#utility.yul\":5516:5587   */\n              tag_62\n              jump\t// in\n            tag_149:\n                /* \"#utility.yul\":5372:5594   */\n              swap3\n              swap2\n              pop\n              pop\n              jump\t// out\n                /* \"#utility.yul\":5600:6109   */\n            tag_27:\n                /* \"#utility.yul\":5669:5675   */\n              0x00\n                /* \"#utility.yul\":5718:5720   */\n              0x20\n                /* \"#utility.yul\":5706:5715   */\n              dup3\n                /* \"#utility.yul\":5697:5704   */\n              dup5\n                /* \"#utility.yul\":5693:5716   */\n              sub\n                /* \"#utility.yul\":5689:5721   */\n              slt\n                /* \"#utility.yul\":5686:5805   */\n              iszero\n              tag_151\n              jumpi\n                /* \"#utility.yul\":5724:5803   */\n              tag_152\n              tag_47\n              jump\t// in\n            tag_152:\n                /* \"#utility.yul\":5686:5805   */\n            tag_151:\n                /* \"#utility.yul\":5872:5873   */\n              0x00\n                /* \"#utility.yul\":5861:5870   */\n              dup3\n                /* \"#utility.yul\":5857:5874   */\n              add\n                /* \"#utility.yul\":5844:5875   */\n              calldataload\n                /* \"#utility.yul\":5902:5920   */\n              0xffffffffffffffff\n                /* \"#utility.yul\":5894:5900   */\n              dup2\n                /* \"#utility.yul\":5891:5921   */\n              gt\n                /* \"#utility.yul\":5888:6005   */\n              iszero\n              tag_153\n              jumpi\n                /* \"#utility.yul\":5924:6003   */\n              tag_154\n              tag_48\n              jump\t// in\n            tag_154:\n                /* \"#utility.yul\":5888:6005   */\n            tag_153:\n                /* \"#utility.yul\":6029:6092   */\n              tag_155\n                /* \"#utility.yul\":6084:6091   */\n              dup5\n                /* \"#utility.yul\":6075:6081   */\n              dup3\n                /* \"#utility.yul\":6064:6073   */\n              dup6\n                /* \"#utility.yul\":6060:6082   */\n              add\n                /* \"#utility.yul\":6029:6092   */\n              tag_61\n              jump\t// in\n            tag_155:\n                /* \"#utility.yul\":6019:6092   */\n              swap2\n              pop\n                /* \"#utility.yul\":5815:6102   */\n              pop\n                /* \"#utility.yul\":5600:6109   */\n              swap3\n              swap2\n              pop\n              pop\n              jump\t// out\n                /* \"#utility.yul\":6115:6263   */\n            tag_67:\n                /* \"#utility.yul\":6217:6228   */\n              0x00\n                /* \"#utility.yul\":6254:6257   */\n              dup2\n                /* \"#utility.yul\":6239:6257   */\n              swap1\n              pop\n                /* \"#utility.yul\":6115:6263   */\n              swap3\n              swap2\n              pop\n              pop\n              jump\t// out\n                /* \"#utility.yul\":6269:6659   */\n            tag_68:\n                /* \"#utility.yul\":6375:6378   */\n              0x00\n                /* \"#utility.yul\":6403:6442   */\n              tag_158\n                /* \"#utility.yul\":6436:6441   */\n              dup3\n                /* \"#utility.yul\":6403:6442   */\n              tag_63\n              jump\t// in\n            tag_158:\n                /* \"#utility.yul\":6458:6547   */\n              tag_159\n                /* \"#utility.yul\":6540:6546   */\n              dup2\n                /* \"#utility.yul\":6535:6538   */\n              dup6\n                /* \"#utility.yul\":6458:6547   */\n              tag_67\n              jump\t// in\n            tag_159:\n                /* \"#utility.yul\":6451:6547   */\n              swap4\n              pop\n                /* \"#utility.yul\":6556:6621   */\n              tag_160\n                /* \"#utility.yul\":6614:6620   */\n              dup2\n                /* \"#utility.yul\":6609:6612   */\n              dup6\n                /* \"#utility.yul\":6602:6606   */\n              0x20\n                /* \"#utility.yul\":6595:6600   */\n              dup7\n                /* \"#utility.yul\":6591:6607   */\n              add\n                /* \"#utility.yul\":6556:6621   */\n              tag_65\n              jump\t// in\n            tag_160:\n                /* \"#utility.yul\":6646:6652   */\n              dup1\n                /* \"#utility.yul\":6641:6644   */\n              dup5\n                /* \"#utility.yul\":6637:6653   */\n              add\n                /* \"#utility.yul\":6630:6653   */\n              swap2\n              pop\n                /* \"#utility.yul\":6379:6659   */\n              pop\n                /* \"#utility.yul\":6269:6659   */\n              swap3\n              swap2\n              pop\n              pop\n              jump\t// out\n                /* \"#utility.yul\":6665:6940   */\n            tag_33:\n                /* \"#utility.yul\":6797:6800   */\n              0x00\n                /* \"#utility.yul\":6819:6914   */\n              tag_162\n                /* \"#utility.yul\":6910:6913   */\n              dup3\n                /* \"#utility.yul\":6901:6907   */\n              dup5\n                /* \"#utility.yul\":6819:6914   */\n              tag_68\n              jump\t// in\n            tag_162:\n                /* \"#utility.yul\":6812:6914   */\n              swap2\n              pop\n                /* \"#utility.yul\":6931:6934   */\n              dup2\n                /* \"#utility.yul\":6924:6934   */\n              swap1\n              pop\n                /* \"#utility.yul\":6665:6940   */\n              swap3\n              swap2\n              pop\n              pop\n              jump\t// out\n                /* \"#utility.yul\":6946:7126   */\n            tag_69:\n                /* \"#utility.yul\":6994:7071   */\n              0x4e487b7100000000000000000000000000000000000000000000000000000000\n                /* \"#utility.yul\":6991:6992   */\n              0x00\n                /* \"#utility.yul\":6984:7072   */\n              mstore\n                /* \"#utility.yul\":7091:7095   */\n              0x22\n                /* \"#utility.yul\":7088:7089   */\n              0x04\n                /* \"#utility.yul\":7081:7096   */\n              mstore\n                /* \"#utility.yul\":7115:7119   */\n              0x24\n                /* \"#utility.yul\":7112:7113   */\n              0x00\n                /* \"#utility.yul\":7105:7120   */\n              revert\n                /* \"#utility.yul\":7132:7452   */\n            tag_40:\n                /* \"#utility.yul\":7176:7182   */\n              0x00\n                /* \"#utility.yul\":7213:7214   */\n              0x02\n                /* \"#utility.yul\":7207:7211   */\n              dup3\n                /* \"#utility.yul\":7203:7215   */\n              div\n                /* \"#utility.yul\":7193:7215   */\n              swap1\n              pop\n                /* \"#utility.yul\":7260:7261   */\n              0x01\n                /* \"#utility.yul\":7254:7258   */\n              dup3\n                /* \"#utility.yul\":7250:7262   */\n              and\n                /* \"#utility.yul\":7281:7299   */\n              dup1\n                /* \"#utility.yul\":7271:7352   */\n              tag_165\n              jumpi\n                /* \"#utility.yul\":7337:7341   */\n              0x7f\n                /* \"#utility.yul\":7329:7335   */\n              dup3\n                /* \"#utility.yul\":7325:7342   */\n              and\n                /* \"#utility.yul\":7315:7342   */\n              swap2\n              pop\n                /* \"#utility.yul\":7271:7352   */\n            tag_165:\n                /* \"#utility.yul\":7399:7401   */\n              0x20\n                /* \"#utility.yul\":7391:7397   */\n              dup3\n                /* \"#utility.yul\":7388:7402   */\n              lt\n                /* \"#utility.yul\":7368:7386   */\n              dup2\n                /* \"#utility.yul\":7365:7403   */\n              sub\n                /* \"#utility.yul\":7362:7446   */\n              tag_166\n              jumpi\n                /* \"#utility.yul\":7418:7436   */\n              tag_167\n              tag_69\n              jump\t// in\n            tag_167:\n                /* \"#utility.yul\":7362:7446   */\n            tag_166:\n                /* \"#utility.yul\":7183:7452   */\n              pop\n                /* \"#utility.yul\":7132:7452   */\n              swap2\n              swap1\n              pop\n              jump\t// out\n                /* \"#utility.yul\":7458:7599   */\n            tag_70:\n                /* \"#utility.yul\":7507:7511   */\n              0x00\n                /* \"#utility.yul\":7530:7533   */\n              dup2\n                /* \"#utility.yul\":7522:7533   */\n              swap1\n              pop\n                /* \"#utility.yul\":7553:7556   */\n              dup2\n                /* \"#utility.yul\":7550:7551   */\n              0x00\n                /* \"#utility.yul\":7543:7557   */\n              mstore\n                /* \"#utility.yul\":7587:7591   */\n              0x20\n                /* \"#utility.yul\":7584:7585   */\n              0x00\n                /* \"#utility.yul\":7574:7592   */\n              keccak256\n                /* \"#utility.yul\":7566:7592   */\n              swap1\n              pop\n                /* \"#utility.yul\":7458:7599   */\n              swap2\n              swap1\n              pop\n              jump\t// out\n                /* \"#utility.yul\":7605:7698   */\n            tag_71:\n                /* \"#utility.yul\":7642:7648   */\n              0x00\n                /* \"#utility.yul\":7689:7691   */\n              0x20\n                /* \"#utility.yul\":7684:7686   */\n              0x1f\n                /* \"#utility.yul\":7677:7682   */\n              dup4\n                /* \"#utility.yul\":7673:7687   */\n              add\n                /* \"#utility.yul\":7669:7692   */\n              div\n                /* \"#utility.yul\":7659:7692   */\n              swap1\n              pop\n                /* \"#utility.yul\":7605:7698   */\n              swap2\n              swap1\n              pop\n              jump\t// out\n                /* \"#utility.yul\":7704:7811   */\n            tag_72:\n                /* \"#utility.yul\":7748:7756   */\n              0x00\n                /* \"#utility.yul\":7798:7803   */\n              dup3\n                /* \"#utility.yul\":7792:7796   */\n              dup3\n                /* \"#utility.yul\":7788:7804   */\n              shl\n                /* \"#utility.yul\":7767:7804   */\n              swap1\n              pop\n                /* \"#utility.yul\":7704:7811   */\n              swap3\n              swap2\n              pop\n              pop\n              jump\t// out\n                /* \"#utility.yul\":7817:8210   */\n            tag_73:\n                /* \"#utility.yul\":7886:7892   */\n              0x00\n                /* \"#utility.yul\":7936:7937   */\n              0x08\n                /* \"#utility.yul\":7924:7934   */\n              dup4\n                /* \"#utility.yul\":7920:7938   */\n              mul\n                /* \"#utility.yul\":7959:8056   */\n              tag_172\n                /* \"#utility.yul\":7989:8055   */\n              0xffffffffffffffffffffffffffffffffffffffffffffffffffffffffffffffff\n                /* \"#utility.yul\":7978:7987   */\n              dup3\n                /* \"#utility.yul\":7959:8056   */\n              tag_72\n              jump\t// in\n            tag_172:\n                /* \"#utility.yul\":8077:8116   */\n              tag_173\n                /* \"#utility.yul\":8107:8115   */\n              dup7\n                /* \"#utility.yul\":8096:8105   */\n              dup4\n                /* \"#utility.yul\":8077:8116   */\n              tag_72\n              jump\t// in\n            tag_173:\n                /* \"#utility.yul\":8065:8116   */\n              swap6\n              pop\n                /* \"#utility.yul\":8149:8153   */\n              dup1\n                /* \"#utility.yul\":8145:8154   */\n              not\n                /* \"#utility.yul\":8138:8143   */\n              dup5\n                /* \"#utility.yul\":8134:8155   */\n              and\n                /* \"#utility.yul\":8125:8155   */\n              swap4\n              pop\n                /* \"#utility.yul\":8198:8202   */\n              dup1\n                /* \"#utility.yul\":8188:8196   */\n              dup7\n                /* \"#utility.yul\":8184:8203   */\n              and\n                /* \"#utility.yul\":8177:8182   */\n              dup5\n                /* \"#utility.yul\":8174:8204   */\n              or\n                /* \"#utility.yul\":8164:8204   */\n              swap3\n              pop\n                /* \"#utility.yul\":7893:8210   */\n              pop\n              pop\n                /* \"#utility.yul\":7817:8210   */\n              swap4\n              swap3\n              pop\n              pop\n              pop\n              jump\t// out\n                /* \"#utility.yul\":8216:8276   */\n            tag_74:\n                /* \"#utility.yul\":8244:8247   */\n              0x00\n                /* \"#utility.yul\":8265:8270   */\n              dup2\n                /* \"#utility.yul\":8258:8270   */\n              swap1\n              pop\n                /* \"#utility.yul\":8216:8276   */\n              swap2\n              swap1\n              pop\n              jump\t// out\n                /* \"#utility.yul\":8282:8424   */\n            tag_75:\n                /* \"#utility.yul\":8332:8341   */\n              0x00\n                /* \"#utility.yul\":8365:8418   */\n              tag_176\n                /* \"#utility.yul\":8383:8417   */\n              tag_177\n                /* \"#utility.yul\":8392:8416   */\n              tag_178\n                /* \"#utility.yul\":8410:8415   */\n              dup5\n                /* \"#utility.yul\":8392:8416   */\n              tag_49\n              jump\t// in\n            tag_178:\n                /* \"#utility.yul\":8383:8417   */\n              tag_74\n              jump\t// in\n            tag_177:\n                /* \"#utility.yul\":8365:8418   */\n              tag_49\n              jump\t// in\n            tag_176:\n                /* \"#utility.yul\":8352:8418   */\n              swap1\n              pop\n                /* \"#utility.yul\":8282:8424   */\n              swap2\n              swap1\n              pop\n              jump\t// out\n                /* \"#utility.yul\":8430:8505   */\n            tag_76:\n                /* \"#utility.yul\":8473:8476   */\n              0x00\n                /* \"#utility.yul\":8494:8499   */\n              dup2\n                /* \"#utility.yul\":8487:8499   */\n              swap1\n              pop\n                /* \"#utility.yul\":8430:8505   */\n              swap2\n              swap1\n              pop\n              jump\t// out\n                /* \"#utility.yul\":8511:8780   */\n            tag_77:\n                /* \"#utility.yul\":8621:8660   */\n              tag_181\n                /* \"#utility.yul\":8652:8659   */\n              dup4\n                /* \"#utility.yul\":8621:8660   */\n              tag_75\n              jump\t// in\n            tag_181:\n                /* \"#utility.yul\":8682:8773   */\n              tag_182\n                /* \"#utility.yul\":8731:8772   */\n              tag_183\n                /* \"#utility.yul\":8755:8771   */\n              dup3\n                /* \"#utility.yul\":8731:8772   */\n              tag_76\n              jump\t// in\n            tag_183:\n                /* \"#utility.yul\":8723:8729   */\n              dup5\n                /* \"#utility.yul\":8716:8720   */\n              dup5\n                /* \"#utility.yul\":8710:8721   */\n              sload\n                /* \"#utility.yul\":8682:8773   */\n              tag_73\n              jump\t// in\n            tag_182:\n                /* \"#utility.yul\":8676:8680   */\n              dup3\n                /* \"#utility.yul\":8669:8774   */\n              sstore\n                /* \"#utility.yul\":8587:8780   */\n              pop\n                /* \"#utility.yul\":8511:8780   */\n              pop\n              pop\n              pop\n              jump\t// out\n                /* \"#utility.yul\":8786:8859   */\n            tag_78:\n                /* \"#utility.yul\":8831:8834   */\n              0x00\n                /* \"#utility.yul\":8786:8859   */\n              swap1\n              jump\t// out\n                /* \"#utility.yul\":8865:9054   */\n            tag_79:\n                /* \"#utility.yul\":8942:8974   */\n              tag_186\n              tag_78\n              jump\t// in\n            tag_186:\n                /* \"#utility.yul\":8983:9048   */\n              tag_187\n                /* \"#utility.yul\":9041:9047   */\n              dup2\n                /* \"#utility.yul\":9033:9039   */\n              dup5\n                /* \"#utility.yul\":9027:9031   */\n              dup5\n                /* \"#utility.yul\":8983:9048   */\n              tag_77\n              jump\t// in\n            tag_187:\n                /* \"#utility.yul\":8918:9054   */\n              pop\n                /* \"#utility.yul\":8865:9054   */\n              pop\n              pop\n              jump\t// out\n                /* \"#utility.yul\":9060:9246   */\n            tag_80:\n                /* \"#utility.yul\":9120:9240   */\n            tag_189:\n                /* \"#utility.yul\":9137:9140   */\n              dup2\n                /* \"#utility.yul\":9130:9135   */\n              dup2\n                /* \"#utility.yul\":9127:9141   */\n              lt\n                /* \"#utility.yul\":9120:9240   */\n              iszero\n              tag_191\n              jumpi\n                /* \"#utility.yul\":9191:9230   */\n              tag_192\n                /* \"#utility.yul\":9228:9229   */\n              0x00\n                /* \"#utility.yul\":9221:9226   */\n              dup3\n                /* \"#utility.yul\":9191:9230   */\n              tag_79\n              jump\t// in\n            tag_192:\n                /* \"#utility.yul\":9164:9165   */\n              0x01\n                /* \"#utility.yul\":9157:9162   */\n              dup2\n                /* \"#utility.yul\":9153:9166   */\n              add\n                /* \"#utility.yul\":9144:9166   */\n              swap1\n              pop\n                /* \"#utility.yul\":9120:9240   */\n              jump(tag_189)\n            tag_191:\n                /* \"#utility.yul\":9060:9246   */\n              pop\n              pop\n              jump\t// out\n                /* \"#utility.yul\":9252:9795   */\n            tag_81:\n                /* \"#utility.yul\":9353:9355   */\n              0x1f\n                /* \"#utility.yul\":9348:9351   */\n              dup3\n                /* \"#utility.yul\":9345:9356   */\n              gt\n                /* \"#utility.yul\":9342:9788   */\n              iszero\n              tag_194\n              jumpi\n                /* \"#utility.yul\":9387:9425   */\n              tag_195\n                /* \"#utility.yul\":9419:9424   */\n              dup2\n                /* \"#utility.yul\":9387:9425   */\n              tag_70\n              jump\t// in\n            tag_195:\n                /* \"#utility.yul\":9471:9500   */\n              tag_196\n                /* \"#utility.yul\":9489:9499   */\n              dup5\n                /* \"#utility.yul\":9471:9500   */\n              tag_71\n              jump\t// in\n            tag_196:\n                /* \"#utility.yul\":9461:9469   */\n              dup2\n                /* \"#utility.yul\":9457:9501   */\n              add\n                /* \"#utility.yul\":9654:9656   */\n              0x20\n                /* \"#utility.yul\":9642:9652   */\n              dup6\n                /* \"#utility.yul\":9639:9657   */\n              lt\n                /* \"#utility.yul\":9636:9685   */\n              iszero\n              tag_197\n              jumpi\n                /* \"#utility.yul\":9675:9683   */\n              dup2\n                /* \"#utility.yul\":9660:9683   */\n              swap1\n              pop\n                /* \"#utility.yul\":9636:9685   */\n            tag_197:\n                /* \"#utility.yul\":9698:9778   */\n              tag_198\n                /* \"#utility.yul\":9754:9776   */\n              tag_199\n                /* \"#utility.yul\":9772:9775   */\n              dup6\n                /* \"#utility.yul\":9754:9776   */\n              tag_71\n              jump\t// in\n            tag_199:\n                /* \"#utility.yul\":9744:9752   */\n              dup4\n                /* \"#utility.yul\":9740:9777   */\n              add\n                /* \"#utility.yul\":9727:9738   */\n              dup3\n                /* \"#utility.yul\":9698:9778   */\n              tag_80\n              jump\t// in\n            tag_198:\n                /* \"#utility.yul\":9357:9788   */\n              pop\n              pop\n                /* \"#utility.yul\":9342:9788   */\n            tag_194:\n                /* \"#utility.yul\":9252:9795   */\n              pop\n              pop\n              pop\n              jump\t// out\n                /* \"#utility.yul\":9801:9918   */\n            tag_82:\n                /* \"#utility.yul\":9855:9863   */\n              0x00\n                /* \"#utility.yul\":9905:9910   */\n              dup3\n                /* \"#utility.yul\":9899:9903   */\n              dup3\n                /* \"#utility.yul\":9895:9911   */\n              shr\n                /* \"#utility.yul\":9874:9911   */\n              swap1\n              pop\n                /* \"#utility.yul\":9801:9918   */\n              swap3\n              swap2\n              pop\n              pop\n              jump\t// out\n                /* \"#utility.yul\":9924:10093   */\n            tag_83:\n                /* \"#utility.yul\":9968:9974   */\n              0x00\n                /* \"#utility.yul\":10001:10052   */\n              tag_202\n                /* \"#utility.yul\":10049:10050   */\n              0x00\n                /* \"#utility.yul\":10045:10051   */\n              not\n                /* \"#utility.yul\":10037:10042   */\n              dup5\n                /* \"#utility.yul\":10034:10035   */\n              0x08\n                /* \"#utility.yul\":10030:10043   */\n              mul\n                /* \"#utility.yul\":10001:10052   */\n              tag_82\n              jump\t// in\n            tag_202:\n                /* \"#utility.yul\":9997:10053   */\n              not\n                /* \"#utility.yul\":10082:10086   */\n              dup1\n                /* \"#utility.yul\":10076:10080   */\n              dup4\n                /* \"#utility.yul\":10072:10087   */\n              and\n                /* \"#utility.yul\":10062:10087   */\n              swap2\n              pop\n                /* \"#utility.yul\":9975:10093   */\n              pop\n                /* \"#utility.yul\":9924:10093   */\n              swap3\n              swap2\n              pop\n              pop\n              jump\t// out\n                /* \"#utility.yul\":10098:10393   */\n            tag_84:\n                /* \"#utility.yul\":10174:10178   */\n              0x00\n                /* \"#utility.yul\":10320:10349   */\n              tag_204\n                /* \"#utility.yul\":10345:10348   */\n              dup4\n                /* \"#utility.yul\":10339:10343   */\n              dup4\n                /* \"#utility.yul\":10320:10349   */\n              tag_83\n              jump\t// in\n            tag_204:\n                /* \"#utility.yul\":10312:10349   */\n              swap2\n              pop\n                /* \"#utility.yul\":10382:10385   */\n              dup3\n                /* \"#utility.yul\":10379:10380   */\n              0x02\n                /* \"#utility.yul\":10375:10386   */\n              mul\n                /* \"#utility.yul\":10369:10373   */\n              dup3\n                /* \"#utility.yul\":10366:10387   */\n              or\n                /* \"#utility.yul\":10358:10387   */\n              swap1\n              pop\n                /* \"#utility.yul\":10098:10393   */\n              swap3\n              swap2\n              pop\n              pop\n              jump\t// out\n                /* \"#utility.yul\":10398:11793   */\n            tag_36:\n                /* \"#utility.yul\":10515:10552   */\n              tag_206\n                /* \"#utility.yul\":10548:10551   */\n              dup3\n                /* \"#utility.yul\":10515:10552   */\n              tag_63\n              jump\t// in\n            tag_206:\n                /* \"#utility.yul\":10617:10635   */\n              0xffffffffffffffff\n                /* \"#utility.yul\":10609:10615   */\n              dup2\n                /* \"#utility.yul\":10606:10636   */\n              gt\n                /* \"#utility.yul\":10603:10659   */\n              iszero\n              tag_207\n              jumpi\n                /* \"#utility.yul\":10639:10657   */\n              tag_208\n              tag_55\n              jump\t// in\n            tag_208:\n                /* \"#utility.yul\":10603:10659   */\n            tag_207:\n                /* \"#utility.yul\":10683:10721   */\n              tag_209\n                /* \"#utility.yul\":10715:10719   */\n              dup3\n                /* \"#utility.yul\":10709:10720   */\n              sload\n                /* \"#utility.yul\":10683:10721   */\n              tag_40\n              jump\t// in\n            tag_209:\n                /* \"#utility.yul\":10768:10835   */\n              tag_210\n                /* \"#utility.yul\":10828:10834   */\n              dup3\n                /* \"#utility.yul\":10820:10826   */\n              dup3\n                /* \"#utility.yul\":10814:10818   */\n              dup6\n                /* \"#utility.yul\":10768:10835   */\n              tag_81\n              jump\t// in\n            tag_210:\n                /* \"#utility.yul\":10862:10863   */\n              0x00\n                /* \"#utility.yul\":10886:10890   */\n              0x20\n                /* \"#utility.yul\":10873:10890   */\n              swap1\n              pop\n                /* \"#utility.yul\":10918:10920   */\n              0x1f\n                /* \"#utility.yul\":10910:10916   */\n              dup4\n                /* \"#utility.yul\":10907:10921   */\n              gt\n                /* \"#utility.yul\":10935:10936   */\n              0x01\n                /* \"#utility.yul\":10930:11548   */\n              dup2\n              eq\n              tag_212\n              jumpi\n                /* \"#utility.yul\":11592:11593   */\n              0x00\n                /* \"#utility.yul\":11609:11615   */\n              dup5\n                /* \"#utility.yul\":11606:11683   */\n              iszero\n              tag_213\n              jumpi\n                /* \"#utility.yul\":11658:11667   */\n              dup3\n                /* \"#utility.yul\":11653:11656   */\n              dup8\n                /* \"#utility.yul\":11649:11668   */\n              add\n                /* \"#utility.yul\":11643:11669   */\n              mload\n                /* \"#utility.yul\":11634:11669   */\n              swap1\n              pop\n                /* \"#utility.yul\":11606:11683   */\n            tag_213:\n                /* \"#utility.yul\":11709:11776   */\n              tag_214\n                /* \"#utility.yul\":11769:11775   */\n              dup6\n                /* \"#utility.yul\":11762:11767   */\n              dup3\n                /* \"#utility.yul\":11709:11776   */\n              tag_84\n              jump\t// in\n            tag_214:\n                /* \"#utility.yul\":11703:11707   */\n              dup7\n                /* \"#utility.yul\":11696:11777   */\n              sstore\n                /* \"#utility.yul\":11565:11787   */\n              pop\n                /* \"#utility.yul\":10900:11787   */\n              jump(tag_211)\n                /* \"#utility.yul\":10930:11548   */\n            tag_212:\n                /* \"#utility.yul\":10982:10986   */\n              0x1f\n                /* \"#utility.yul\":10978:10987   */\n              not\n                /* \"#utility.yul\":10970:10976   */\n              dup5\n                /* \"#utility.yul\":10966:10988   */\n              and\n                /* \"#utility.yul\":11016:11053   */\n              tag_215\n                /* \"#utility.yul\":11048:11052   */\n              dup7\n                /* \"#utility.yul\":11016:11053   */\n              tag_70\n              jump\t// in\n            tag_215:\n                /* \"#utility.yul\":11075:11076   */\n              0x00\n                /* \"#utility.yul\":11089:11297   */\n            tag_216:\n                /* \"#utility.yul\":11103:11110   */\n              dup3\n                /* \"#utility.yul\":11100:11101   */\n              dup2\n                /* \"#utility.yul\":11097:11111   */\n              lt\n                /* \"#utility.yul\":11089:11297   */\n              iszero\n              tag_218\n              jumpi\n                /* \"#utility.yul\":11182:11191   */\n              dup5\n                /* \"#utility.yul\":11177:11180   */\n              dup10\n                /* \"#utility.yul\":11173:11192   */\n              add\n                /* \"#utility.yul\":11167:11193   */\n              mload\n                /* \"#utility.yul\":11159:11165   */\n              dup3\n                /* \"#utility.yul\":11152:11194   */\n              sstore\n                /* \"#utility.yul\":11233:11234   */\n              0x01\n                /* \"#utility.yul\":11225:11231   */\n              dup3\n                /* \"#utility.yul\":11221:11235   */\n              add\n                /* \"#utility.yul\":11211:11235   */\n              swap2\n              pop\n                /* \"#utility.yul\":11280:11282   */\n              0x20\n                /* \"#utility.yul\":11269:11278   */\n              dup6\n                /* \"#utility.yul\":11265:11283   */\n              add\n                /* \"#utility.yul\":11252:11283   */\n              swap5\n              pop\n                /* \"#utility.yul\":11126:11130   */\n              0x20\n                /* \"#utility.yul\":11123:11124   */\n              dup2\n                /* \"#utility.yul\":11119:11131   */\n              add\n                /* \"#utility.yul\":11114:11131   */\n              swap1\n              pop\n                /* \"#utility.yul\":11089:11297   */\n              jump(tag_216)\n            tag_218:\n                /* \"#utility.yul\":11325:11331   */\n              dup7\n                /* \"#utility.yul\":11316:11323   */\n              dup4\n                /* \"#utility.yul\":11313:11332   */\n              lt\n                /* \"#utility.yul\":11310:11489   */\n              iszero\n              tag_219\n              jumpi\n                /* \"#utility.yul\":11383:11392   */\n              dup5\n                /* \"#utility.yul\":11378:11381   */\n              dup10\n                /* \"#utility.yul\":11374:11393   */\n              add\n                /* \"#utility.yul\":11368:11394   */\n              mload\n                /* \"#utility.yul\":11426:11474   */\n              tag_220\n                /* \"#utility.yul\":11468:11472   */\n              0x1f\n                /* \"#utility.yul\":11460:11466   */\n              dup10\n                /* \"#utility.yul\":11456:11473   */\n              and\n                /* \"#utility.yul\":11445:11454   */\n              dup3\n                /* \"#utility.yul\":11426:11474   */\n              tag_83\n              jump\t// in\n            tag_220:\n                /* \"#utility.yul\":11418:11424   */\n              dup4\n                /* \"#utility.yul\":11411:11475   */\n              sstore\n                /* \"#utility.yul\":11333:11489   */\n              pop\n                /* \"#utility.yul\":11310:11489   */\n            tag_219:\n                /* \"#utility.yul\":11535:11536   */\n              0x01\n                /* \"#utility.yul\":11531:11532   */\n              0x02\n                /* \"#utility.yul\":11523:11529   */\n              dup9\n                /* \"#utility.yul\":11519:11533   */\n              mul\n                /* \"#utility.yul\":11515:11537   */\n              add\n                /* \"#utility.yul\":11509:11513   */\n              dup9\n                /* \"#utility.yul\":11502:11538   */\n              sstore\n                /* \"#utility.yul\":10937:11548   */\n              pop\n              pop\n              pop\n                /* \"#utility.yul\":10900:11787   */\n            tag_211:\n              pop\n                /* \"#utility.yul\":10490:11793   */\n              pop\n              pop\n              pop\n                /* \"#utility.yul\":10398:11793   */\n              pop\n              pop\n              jump\t// out\n\n            auxdata: 0xa264697066735822122083144ac57cfb33c6512245f29e2a1eadd0f5f852081919251ebffb7f7658cbda64736f6c63430008180033\n        }\n    }\n\n    auxdata: 0xa264697066735822122072b26b74e8e5294ef45a28c4aa967a287eda2d32a4395c32aaca4f8c6923cf1264736f6c63430008180033\n}\n",
				"bytecode": {
					"linkReferences": {},
					"object": "608060405234801561000f575f80fd5b50610e148061001d5f395ff3fe608060405234801561000f575f80fd5b506004361061004a575f3560e01c80631563700f1461004e5780631dda65411461006a578063c5f19c2014610074578063f39f3035146100a4575b5f80fd5b6100686004803603810190610063919061033a565b6100d4565b005b61007261017d565b005b61008e60048036038101906100899190610378565b610208565b60405161009b91906103b2565b60405180910390f35b6100be60048036038101906100b99190610378565b6102bc565b6040516100cb9190610445565b60405180910390f35b5f8083815481106100e8576100e761045e565b5b905f5260205f20015f9054906101000a900473ffffffffffffffffffffffffffffffffffffffff1690508073ffffffffffffffffffffffffffffffffffffffff16636057361d836040518263ffffffff1660e01b815260040161014b91906103b2565b5f604051808303815f87803b158015610162575f80fd5b505af1158015610174573d5f803e3d5ffd5b50505050505050565b5f60405161018a906102f6565b604051809103905ff0801580156101a3573d5f803e3d5ffd5b5090505f81908060018154018082558091505060019003905f5260205f20015f9091909190916101000a81548173ffffffffffffffffffffffffffffffffffffffff021916908373ffffffffffffffffffffffffffffffffffffffff16021790555050565b5f805f838154811061021d5761021c61045e565b5b905f5260205f20015f9054906101000a900473ffffffffffffffffffffffffffffffffffffffff1690508073ffffffffffffffffffffffffffffffffffffffff1663a6b7fc5b6040518163ffffffff1660e01b8152600401602060405180830381865afa158015610290573d5f803e3d5ffd5b505050506040513d601f19601f820116820180604052508101906102b4919061049f565b915050919050565b5f81815481106102ca575f80fd5b905f5260205f20015f915054906101000a900473ffffffffffffffffffffffffffffffffffffffff1681565b610914806104cb83390190565b5f80fd5b5f819050919050565b61031981610307565b8114610323575f80fd5b50565b5f8135905061033481610310565b92915050565b5f80604083850312156103505761034f610303565b5b5f61035d85828601610326565b925050602061036e85828601610326565b9150509250929050565b5f6020828403121561038d5761038c610303565b5b5f61039a84828501610326565b91505092915050565b6103ac81610307565b82525050565b5f6020820190506103c55f8301846103a3565b92915050565b5f73ffffffffffffffffffffffffffffffffffffffff82169050919050565b5f819050919050565b5f61040d610408610403846103cb565b6103ea565b6103cb565b9050919050565b5f61041e826103f3565b9050919050565b5f61042f82610414565b9050919050565b61043f81610425565b82525050565b5f6020820190506104585f830184610436565b92915050565b7f4e487b71000000000000000000000000000000000000000000000000000000005f52603260045260245ffd5b5f8151905061049981610310565b92915050565b5f602082840312156104b4576104b3610303565b5b5f6104c18482850161048b565b9150509291505056fe608060405234801561000f575f80fd5b506108f78061001d5f395ff3fe608060405234801561000f575f80fd5b5060043610610055575f3560e01c80636057361d146100595780636f760f4114610075578063a2f9eac614610091578063a6b7fc5b146100c2578063babcb2cf146100e0575b5f80fd5b610073600480360381019061006e91906102d0565b610110565b005b61008f600480360381019061008a9190610437565b610119565b005b6100ab60048036038101906100a691906102d0565b6101a2565b6040516100b992919061051a565b60405180910390f35b6100ca610257565b6040516100d79190610548565b60405180910390f35b6100fa60048036038101906100f59190610561565b61025f565b6040516101079190610548565b60405180910390f35b805f8190555050565b5f60405180604001604052808381526020018481525090508160028460405161014291906105e2565b908152602001604051809103902081905550600181908060018154018082558091505060019003905f5260205f2090600202015f909190919091505f820151815f0155602082015181600101908161019a91906107f2565b505050505050565b600181815481106101b1575f80fd5b905f5260205f2090600202015f91509050805f0154908060010180546101d690610625565b80601f016020809104026020016040519081016040528092919081815260200182805461020290610625565b801561024d5780601f106102245761010080835404028352916020019161024d565b820191905f5260205f20905b81548152906001019060200180831161023057829003601f168201915b5050505050905082565b5f8054905090565b6002818051602081018201805184825260208301602085012081835280955050505050505f915090505481565b5f604051905090565b5f80fd5b5f80fd5b5f819050919050565b6102af8161029d565b81146102b9575f80fd5b50565b5f813590506102ca816102a6565b92915050565b5f602082840312156102e5576102e4610295565b5b5f6102f2848285016102bc565b91505092915050565b5f80fd5b5f80fd5b5f601f19601f8301169050919050565b7f4e487b71000000000000000000000000000000000000000000000000000000005f52604160045260245ffd5b61034982610303565b810181811067ffffffffffffffff8211171561036857610367610313565b5b80604052505050565b5f61037a61028c565b90506103868282610340565b919050565b5f67ffffffffffffffff8211156103a5576103a4610313565b5b6103ae82610303565b9050602081019050919050565b828183375f83830152505050565b5f6103db6103d68461038b565b610371565b9050828152602081018484840111156103f7576103f66102ff565b5b6104028482856103bb565b509392505050565b5f82601f83011261041e5761041d6102fb565b5b813561042e8482602086016103c9565b91505092915050565b5f806040838503121561044d5761044c610295565b5b5f83013567ffffffffffffffff81111561046a57610469610299565b5b6104768582860161040a565b9250506020610487858286016102bc565b9150509250929050565b61049a8161029d565b82525050565b5f81519050919050565b5f82825260208201905092915050565b5f5b838110156104d75780820151818401526020810190506104bc565b5f8484015250505050565b5f6104ec826104a0565b6104f681856104aa565b93506105068185602086016104ba565b61050f81610303565b840191505092915050565b5f60408201905061052d5f830185610491565b818103602083015261053f81846104e2565b90509392505050565b5f60208201905061055b5f830184610491565b92915050565b5f6020828403121561057657610575610295565b5b5f82013567ffffffffffffffff81111561059357610592610299565b5b61059f8482850161040a565b91505092915050565b5f81905092915050565b5f6105bc826104a0565b6105c681856105a8565b93506105d68185602086016104ba565b80840191505092915050565b5f6105ed82846105b2565b915081905092915050565b7f4e487b71000000000000000000000000000000000000000000000000000000005f52602260045260245ffd5b5f600282049050600182168061063c57607f821691505b60208210810361064f5761064e6105f8565b5b50919050565b5f819050815f5260205f209050919050565b5f6020601f8301049050919050565b5f82821b905092915050565b5f600883026106b17fffffffffffffffffffffffffffffffffffffffffffffffffffffffffffffffff82610676565b6106bb8683610676565b95508019841693508086168417925050509392505050565b5f819050919050565b5f6106f66106f16106ec8461029d565b6106d3565b61029d565b9050919050565b5f819050919050565b61070f836106dc565b61072361071b826106fd565b848454610682565b825550505050565b5f90565b61073761072b565b610742818484610706565b505050565b5b818110156107655761075a5f8261072f565b600181019050610748565b5050565b601f8211156107aa5761077b81610655565b61078484610667565b81016020851015610793578190505b6107a761079f85610667565b830182610747565b50505b505050565b5f82821c905092915050565b5f6107ca5f19846008026107af565b1980831691505092915050565b5f6107e283836107bb565b9150826002028217905092915050565b6107fb826104a0565b67ffffffffffffffff81111561081457610813610313565b5b61081e8254610625565b610829828285610769565b5f60209050601f83116001811461085a575f8415610848578287015190505b61085285826107d7565b8655506108b9565b601f19841661086886610655565b5f5b8281101561088f5784890151825560018201915060208501945060208101905061086a565b868310156108ac57848901516108a8601f8916826107bb565b8355505b6001600288020188555050505b50505050505056fea264697066735822122083144ac57cfb33c6512245f29e2a1eadd0f5f852081919251ebffb7f7658cbda64736f6c63430008180033a264697066735822122072b26b74e8e5294ef45a28c4aa967a287eda2d32a4395c32aaca4f8c6923cf1264736f6c63430008180033",
					"opcodes": "PUSH1 0x80 PUSH1 0x40 MSTORE CALLVALUE DUP1 ISZERO PUSH2 0xF JUMPI PUSH0 DUP1 REVERT JUMPDEST POP PUSH2 0xE14 DUP1 PUSH2 0x1D PUSH0 CODECOPY PUSH0 RETURN INVALID PUSH1 0x80 PUSH1 0x40 MSTORE CALLVALUE DUP1 ISZERO PUSH2 0xF JUMPI PUSH0 DUP1 REVERT JUMPDEST POP PUSH1 0x4 CALLDATASIZE LT PUSH2 0x4A JUMPI PUSH0 CALLDATALOAD PUSH1 0xE0 SHR DUP1 PUSH4 0x1563700F EQ PUSH2 0x4E JUMPI DUP1 PUSH4 0x1DDA6541 EQ PUSH2 0x6A JUMPI DUP1 PUSH4 0xC5F19C20 EQ PUSH2 0x74 JUMPI DUP1 PUSH4 0xF39F3035 EQ PUSH2 0xA4 JUMPI JUMPDEST PUSH0 DUP1 REVERT JUMPDEST PUSH2 0x68 PUSH1 0x4 DUP1 CALLDATASIZE SUB DUP2 ADD SWAP1 PUSH2 0x63 SWAP2 SWAP1 PUSH2 0x33A JUMP JUMPDEST PUSH2 0xD4 JUMP JUMPDEST STOP JUMPDEST PUSH2 0x72 PUSH2 0x17D JUMP JUMPDEST STOP JUMPDEST PUSH2 0x8E PUSH1 0x4 DUP1 CALLDATASIZE SUB DUP2 ADD SWAP1 PUSH2 0x89 SWAP2 SWAP1 PUSH2 0x378 JUMP JUMPDEST PUSH2 0x208 JUMP JUMPDEST PUSH1 0x40 MLOAD PUSH2 0x9B SWAP2 SWAP1 PUSH2 0x3B2 JUMP JUMPDEST PUSH1 0x40 MLOAD DUP1 SWAP2 SUB SWAP1 RETURN JUMPDEST PUSH2 0xBE PUSH1 0x4 DUP1 CALLDATASIZE SUB DUP2 ADD SWAP1 PUSH2 0xB9 SWAP2 SWAP1 PUSH2 0x378 JUMP JUMPDEST PUSH2 0x2BC JUMP JUMPDEST PUSH1 0x40 MLOAD PUSH2 0xCB SWAP2 SWAP1 PUSH2 0x445 JUMP JUMPDEST PUSH1 0x40 MLOAD DUP1 SWAP2 SUB SWAP1 RETURN JUMPDEST PUSH0 DUP1 DUP4 DUP2 SLOAD DUP2 LT PUSH2 0xE8 JUMPI PUSH2 0xE7 PUSH2 0x45E JUMP JUMPDEST JUMPDEST SWAP1 PUSH0 MSTORE PUSH1 0x20 PUSH0 KECCAK256 ADD PUSH0 SWAP1 SLOAD SWAP1 PUSH2 0x100 EXP SWAP1 DIV PUSH20 0xFFFFFFFFFFFFFFFFFFFFFFFFFFFFFFFFFFFFFFFF AND SWAP1 POP DUP1 PUSH20 0xFFFFFFFFFFFFFFFFFFFFFFFFFFFFFFFFFFFFFFFF AND PUSH4 0x6057361D DUP4 PUSH1 0x40 MLOAD DUP3 PUSH4 0xFFFFFFFF AND PUSH1 0xE0 SHL DUP2 MSTORE PUSH1 0x4 ADD PUSH2 0x14B SWAP2 SWAP1 PUSH2 0x3B2 JUMP JUMPDEST PUSH0 PUSH1 0x40 MLOAD DUP1 DUP4 SUB DUP2 PUSH0 DUP8 DUP1 EXTCODESIZE ISZERO DUP1 ISZERO PUSH2 0x162 JUMPI PUSH0 DUP1 REVERT JUMPDEST POP GAS CALL ISZERO DUP1 ISZERO PUSH2 0x174 JUMPI RETURNDATASIZE PUSH0 DUP1 RETURNDATACOPY RETURNDATASIZE PUSH0 REVERT JUMPDEST POP POP POP POP POP POP POP JUMP JUMPDEST PUSH0 PUSH1 0x40 MLOAD PUSH2 0x18A SWAP1 PUSH2 0x2F6 JUMP JUMPDEST PUSH1 0x40 MLOAD DUP1 SWAP2 SUB SWAP1 PUSH0 CREATE DUP1 ISZERO DUP1 ISZERO PUSH2 0x1A3 JUMPI RETURNDATASIZE PUSH0 DUP1 RETURNDATACOPY RETURNDATASIZE PUSH0 REVERT JUMPDEST POP SWAP1 POP PUSH0 DUP2 SWAP1 DUP1 PUSH1 0x1 DUP2 SLOAD ADD DUP1 DUP3 SSTORE DUP1 SWAP2 POP POP PUSH1 0x1 SWAP1 SUB SWAP1 PUSH0 MSTORE PUSH1 0x20 PUSH0 KECCAK256 ADD PUSH0 SWAP1 SWAP2 SWAP1 SWAP2 SWAP1 SWAP2 PUSH2 0x100 EXP DUP2 SLOAD DUP2 PUSH20 0xFFFFFFFFFFFFFFFFFFFFFFFFFFFFFFFFFFFFFFFF MUL NOT AND SWAP1 DUP4 PUSH20 0xFFFFFFFFFFFFFFFFFFFFFFFFFFFFFFFFFFFFFFFF AND MUL OR SWAP1 SSTORE POP POP JUMP JUMPDEST PUSH0 DUP1 PUSH0 DUP4 DUP2 SLOAD DUP2 LT PUSH2 0x21D JUMPI PUSH2 0x21C PUSH2 0x45E JUMP JUMPDEST JUMPDEST SWAP1 PUSH0 MSTORE PUSH1 0x20 PUSH0 KECCAK256 ADD PUSH0 SWAP1 SLOAD SWAP1 PUSH2 0x100 EXP SWAP1 DIV PUSH20 0xFFFFFFFFFFFFFFFFFFFFFFFFFFFFFFFFFFFFFFFF AND SWAP1 POP DUP1 PUSH20 0xFFFFFFFFFFFFFFFFFFFFFFFFFFFFFFFFFFFFFFFF AND PUSH4 0xA6B7FC5B PUSH1 0x40 MLOAD DUP2 PUSH4 0xFFFFFFFF AND PUSH1 0xE0 SHL DUP2 MSTORE PUSH1 0x4 ADD PUSH1 0x20 PUSH1 0x40 MLOAD DUP1 DUP4 SUB DUP2 DUP7 GAS STATICCALL ISZERO DUP1 ISZERO PUSH2 0x290 JUMPI RETURNDATASIZE PUSH0 DUP1 RETURNDATACOPY RETURNDATASIZE PUSH0 REVERT JUMPDEST POP POP POP POP PUSH1 0x40 MLOAD RETURNDATASIZE PUSH1 0x1F NOT PUSH1 0x1F DUP3 ADD AND DUP3 ADD DUP1 PUSH1 0x40 MSTORE POP DUP2 ADD SWAP1 PUSH2 0x2B4 SWAP2 SWAP1 PUSH2 0x49F JUMP JUMPDEST SWAP2 POP POP SWAP2 SWAP1 POP JUMP JUMPDEST PUSH0 DUP2 DUP2 SLOAD DUP2 LT PUSH2 0x2CA JUMPI PUSH0 DUP1 REVERT JUMPDEST SWAP1 PUSH0 MSTORE PUSH1 0x20 PUSH0 KECCAK256 ADD PUSH0 SWAP2 POP SLOAD SWAP1 PUSH2 0x100 EXP SWAP1 DIV PUSH20 0xFFFFFFFFFFFFFFFFFFFFFFFFFFFFFFFFFFFFFFFF AND DUP2 JUMP JUMPDEST PUSH2 0x914 DUP1 PUSH2 0x4CB DUP4 CODECOPY ADD SWAP1 JUMP JUMPDEST PUSH0 DUP1 REVERT JUMPDEST PUSH0 DUP2 SWAP1 POP SWAP2 SWAP1 POP JUMP JUMPDEST PUSH2 0x319 DUP2 PUSH2 0x307 JUMP JUMPDEST DUP2 EQ PUSH2 0x323 JUMPI PUSH0 DUP1 REVERT JUMPDEST POP JUMP JUMPDEST PUSH0 DUP2 CALLDATALOAD SWAP1 POP PUSH2 0x334 DUP2 PUSH2 0x310 JUMP JUMPDEST SWAP3 SWAP2 POP POP JUMP JUMPDEST PUSH0 DUP1 PUSH1 0x40 DUP4 DUP6 SUB SLT ISZERO PUSH2 0x350 JUMPI PUSH2 0x34F PUSH2 0x303 JUMP JUMPDEST JUMPDEST PUSH0 PUSH2 0x35D DUP6 DUP3 DUP7 ADD PUSH2 0x326 JUMP JUMPDEST SWAP3 POP POP PUSH1 0x20 PUSH2 0x36E DUP6 DUP3 DUP7 ADD PUSH2 0x326 JUMP JUMPDEST SWAP2 POP POP SWAP3 POP SWAP3 SWAP1 POP JUMP JUMPDEST PUSH0 PUSH1 0x20 DUP3 DUP5 SUB SLT ISZERO PUSH2 0x38D JUMPI PUSH2 0x38C PUSH2 0x303 JUMP JUMPDEST JUMPDEST PUSH0 PUSH2 0x39A DUP5 DUP3 DUP6 ADD PUSH2 0x326 JUMP JUMPDEST SWAP2 POP POP SWAP3 SWAP2 POP POP JUMP JUMPDEST PUSH2 0x3AC DUP2 PUSH2 0x307 JUMP JUMPDEST DUP3 MSTORE POP POP JUMP JUMPDEST PUSH0 PUSH1 0x20 DUP3 ADD SWAP1 POP PUSH2 0x3C5 PUSH0 DUP4 ADD DUP5 PUSH2 0x3A3 JUMP JUMPDEST SWAP3 SWAP2 POP POP JUMP JUMPDEST PUSH0 PUSH20 0xFFFFFFFFFFFFFFFFFFFFFFFFFFFFFFFFFFFFFFFF DUP3 AND SWAP1 POP SWAP2 SWAP1 POP JUMP JUMPDEST PUSH0 DUP2 SWAP1 POP SWAP2 SWAP1 POP JUMP JUMPDEST PUSH0 PUSH2 0x40D PUSH2 0x408 PUSH2 0x403 DUP5 PUSH2 0x3CB JUMP JUMPDEST PUSH2 0x3EA JUMP JUMPDEST PUSH2 0x3CB JUMP JUMPDEST SWAP1 POP SWAP2 SWAP1 POP JUMP JUMPDEST PUSH0 PUSH2 0x41E DUP3 PUSH2 0x3F3 JUMP JUMPDEST SWAP1 POP SWAP2 SWAP1 POP JUMP JUMPDEST PUSH0 PUSH2 0x42F DUP3 PUSH2 0x414 JUMP JUMPDEST SWAP1 POP SWAP2 SWAP1 POP JUMP JUMPDEST PUSH2 0x43F DUP2 PUSH2 0x425 JUMP JUMPDEST DUP3 MSTORE POP POP JUMP JUMPDEST PUSH0 PUSH1 0x20 DUP3 ADD SWAP1 POP PUSH2 0x458 PUSH0 DUP4 ADD DUP5 PUSH2 0x436 JUMP JUMPDEST SWAP3 SWAP2 POP POP JUMP JUMPDEST PUSH32 0x4E487B7100000000000000000000000000000000000000000000000000000000 PUSH0 MSTORE PUSH1 0x32 PUSH1 0x4 MSTORE PUSH1 0x24 PUSH0 REVERT JUMPDEST PUSH0 DUP2 MLOAD SWAP1 POP PUSH2 0x499 DUP2 PUSH2 0x310 JUMP JUMPDEST SWAP3 SWAP2 POP POP JUMP JUMPDEST PUSH0 PUSH1 0x20 DUP3 DUP5 SUB SLT ISZERO PUSH2 0x4B4 JUMPI PUSH2 0x4B3 PUSH2 0x303 JUMP JUMPDEST JUMPDEST PUSH0 PUSH2 0x4C1 DUP5 DUP3 DUP6 ADD PUSH2 0x48B JUMP JUMPDEST SWAP2 POP POP SWAP3 SWAP2 POP POP JUMP INVALID PUSH1 0x80 PUSH1 0x40 MSTORE CALLVALUE DUP1 ISZERO PUSH2 0xF JUMPI PUSH0 DUP1 REVERT JUMPDEST POP PUSH2 0x8F7 DUP1 PUSH2 0x1D PUSH0 CODECOPY PUSH0 RETURN INVALID PUSH1 0x80 PUSH1 0x40 MSTORE CALLVALUE DUP1 ISZERO PUSH2 0xF JUMPI PUSH0 DUP1 REVERT JUMPDEST POP PUSH1 0x4 CALLDATASIZE LT PUSH2 0x55 JUMPI PUSH0 CALLDATALOAD PUSH1 0xE0 SHR DUP1 PUSH4 0x6057361D EQ PUSH2 0x59 JUMPI DUP1 PUSH4 0x6F760F41 EQ PUSH2 0x75 JUMPI DUP1 PUSH4 0xA2F9EAC6 EQ PUSH2 0x91 JUMPI DUP1 PUSH4 0xA6B7FC5B EQ PUSH2 0xC2 JUMPI DUP1 PUSH4 0xBABCB2CF EQ PUSH2 0xE0 JUMPI JUMPDEST PUSH0 DUP1 REVERT JUMPDEST PUSH2 0x73 PUSH1 0x4 DUP1 CALLDATASIZE SUB DUP2 ADD SWAP1 PUSH2 0x6E SWAP2 SWAP1 PUSH2 0x2D0 JUMP JUMPDEST PUSH2 0x110 JUMP JUMPDEST STOP JUMPDEST PUSH2 0x8F PUSH1 0x4 DUP1 CALLDATASIZE SUB DUP2 ADD SWAP1 PUSH2 0x8A SWAP2 SWAP1 PUSH2 0x437 JUMP JUMPDEST PUSH2 0x119 JUMP JUMPDEST STOP JUMPDEST PUSH2 0xAB PUSH1 0x4 DUP1 CALLDATASIZE SUB DUP2 ADD SWAP1 PUSH2 0xA6 SWAP2 SWAP1 PUSH2 0x2D0 JUMP JUMPDEST PUSH2 0x1A2 JUMP JUMPDEST PUSH1 0x40 MLOAD PUSH2 0xB9 SWAP3 SWAP2 SWAP1 PUSH2 0x51A JUMP JUMPDEST PUSH1 0x40 MLOAD DUP1 SWAP2 SUB SWAP1 RETURN JUMPDEST PUSH2 0xCA PUSH2 0x257 JUMP JUMPDEST PUSH1 0x40 MLOAD PUSH2 0xD7 SWAP2 SWAP1 PUSH2 0x548 JUMP JUMPDEST PUSH1 0x40 MLOAD DUP1 SWAP2 SUB SWAP1 RETURN JUMPDEST PUSH2 0xFA PUSH1 0x4 DUP1 CALLDATASIZE SUB DUP2 ADD SWAP1 PUSH2 0xF5 SWAP2 SWAP1 PUSH2 0x561 JUMP JUMPDEST PUSH2 0x25F JUMP JUMPDEST PUSH1 0x40 MLOAD PUSH2 0x107 SWAP2 SWAP1 PUSH2 0x548 JUMP JUMPDEST PUSH1 0x40 MLOAD DUP1 SWAP2 SUB SWAP1 RETURN JUMPDEST DUP1 PUSH0 DUP2 SWAP1 SSTORE POP POP JUMP JUMPDEST PUSH0 PUSH1 0x40 MLOAD DUP1 PUSH1 0x40 ADD PUSH1 0x40 MSTORE DUP1 DUP4 DUP2 MSTORE PUSH1 0x20 ADD DUP5 DUP2 MSTORE POP SWAP1 POP DUP2 PUSH1 0x2 DUP5 PUSH1 0x40 MLOAD PUSH2 0x142 SWAP2 SWAP1 PUSH2 0x5E2 JUMP JUMPDEST SWAP1 DUP2 MSTORE PUSH1 0x20 ADD PUSH1 0x40 MLOAD DUP1 SWAP2 SUB SWAP1 KECCAK256 DUP2 SWAP1 SSTORE POP PUSH1 0x1 DUP2 SWAP1 DUP1 PUSH1 0x1 DUP2 SLOAD ADD DUP1 DUP3 SSTORE DUP1 SWAP2 POP POP PUSH1 0x1 SWAP1 SUB SWAP1 PUSH0 MSTORE PUSH1 0x20 PUSH0 KECCAK256 SWAP1 PUSH1 0x2 MUL ADD PUSH0 SWAP1 SWAP2 SWAP1 SWAP2 SWAP1 SWAP2 POP PUSH0 DUP3 ADD MLOAD DUP2 PUSH0 ADD SSTORE PUSH1 0x20 DUP3 ADD MLOAD DUP2 PUSH1 0x1 ADD SWAP1 DUP2 PUSH2 0x19A SWAP2 SWAP1 PUSH2 0x7F2 JUMP JUMPDEST POP POP POP POP POP POP JUMP JUMPDEST PUSH1 0x1 DUP2 DUP2 SLOAD DUP2 LT PUSH2 0x1B1 JUMPI PUSH0 DUP1 REVERT JUMPDEST SWAP1 PUSH0 MSTORE PUSH1 0x20 PUSH0 KECCAK256 SWAP1 PUSH1 0x2 MUL ADD PUSH0 SWAP2 POP SWAP1 POP DUP1 PUSH0 ADD SLOAD SWAP1 DUP1 PUSH1 0x1 ADD DUP1 SLOAD PUSH2 0x1D6 SWAP1 PUSH2 0x625 JUMP JUMPDEST DUP1 PUSH1 0x1F ADD PUSH1 0x20 DUP1 SWAP2 DIV MUL PUSH1 0x20 ADD PUSH1 0x40 MLOAD SWAP1 DUP2 ADD PUSH1 0x40 MSTORE DUP1 SWAP3 SWAP2 SWAP1 DUP2 DUP2 MSTORE PUSH1 0x20 ADD DUP3 DUP1 SLOAD PUSH2 0x202 SWAP1 PUSH2 0x625 JUMP JUMPDEST DUP1 ISZERO PUSH2 0x24D JUMPI DUP1 PUSH1 0x1F LT PUSH2 0x224 JUMPI PUSH2 0x100 DUP1 DUP4 SLOAD DIV MUL DUP4 MSTORE SWAP2 PUSH1 0x20 ADD SWAP2 PUSH2 0x24D JUMP JUMPDEST DUP3 ADD SWAP2 SWAP1 PUSH0 MSTORE PUSH1 0x20 PUSH0 KECCAK256 SWAP1 JUMPDEST DUP2 SLOAD DUP2 MSTORE SWAP1 PUSH1 0x1 ADD SWAP1 PUSH1 0x20 ADD DUP1 DUP4 GT PUSH2 0x230 JUMPI DUP3 SWAP1 SUB PUSH1 0x1F AND DUP3 ADD SWAP2 JUMPDEST POP POP POP POP POP SWAP1 POP DUP3 JUMP JUMPDEST PUSH0 DUP1 SLOAD SWAP1 POP SWAP1 JUMP JUMPDEST PUSH1 0x2 DUP2 DUP1 MLOAD PUSH1 0x20 DUP2 ADD DUP3 ADD DUP1 MLOAD DUP5 DUP3 MSTORE PUSH1 0x20 DUP4 ADD PUSH1 0x20 DUP6 ADD KECCAK256 DUP2 DUP4 MSTORE DUP1 SWAP6 POP POP POP POP POP POP PUSH0 SWAP2 POP SWAP1 POP SLOAD DUP2 JUMP JUMPDEST PUSH0 PUSH1 0x40 MLOAD SWAP1 POP SWAP1 JUMP JUMPDEST PUSH0 DUP1 REVERT JUMPDEST PUSH0 DUP1 REVERT JUMPDEST PUSH0 DUP2 SWAP1 POP SWAP2 SWAP1 POP JUMP JUMPDEST PUSH2 0x2AF DUP2 PUSH2 0x29D JUMP JUMPDEST DUP2 EQ PUSH2 0x2B9 JUMPI PUSH0 DUP1 REVERT JUMPDEST POP JUMP JUMPDEST PUSH0 DUP2 CALLDATALOAD SWAP1 POP PUSH2 0x2CA DUP2 PUSH2 0x2A6 JUMP JUMPDEST SWAP3 SWAP2 POP POP JUMP JUMPDEST PUSH0 PUSH1 0x20 DUP3 DUP5 SUB SLT ISZERO PUSH2 0x2E5 JUMPI PUSH2 0x2E4 PUSH2 0x295 JUMP JUMPDEST JUMPDEST PUSH0 PUSH2 0x2F2 DUP5 DUP3 DUP6 ADD PUSH2 0x2BC JUMP JUMPDEST SWAP2 POP POP SWAP3 SWAP2 POP POP JUMP JUMPDEST PUSH0 DUP1 REVERT JUMPDEST PUSH0 DUP1 REVERT JUMPDEST PUSH0 PUSH1 0x1F NOT PUSH1 0x1F DUP4 ADD AND SWAP1 POP SWAP2 SWAP1 POP JUMP JUMPDEST PUSH32 0x4E487B7100000000000000000000000000000000000000000000000000000000 PUSH0 MSTORE PUSH1 0x41 PUSH1 0x4 MSTORE PUSH1 0x24 PUSH0 REVERT JUMPDEST PUSH2 0x349 DUP3 PUSH2 0x303 JUMP JUMPDEST DUP2 ADD DUP2 DUP2 LT PUSH8 0xFFFFFFFFFFFFFFFF DUP3 GT OR ISZERO PUSH2 0x368 JUMPI PUSH2 0x367 PUSH2 0x313 JUMP JUMPDEST JUMPDEST DUP1 PUSH1 0x40 MSTORE POP POP POP JUMP JUMPDEST PUSH0 PUSH2 0x37A PUSH2 0x28C JUMP JUMPDEST SWAP1 POP PUSH2 0x386 DUP3 DUP3 PUSH2 0x340 JUMP JUMPDEST SWAP2 SWAP1 POP JUMP JUMPDEST PUSH0 PUSH8 0xFFFFFFFFFFFFFFFF DUP3 GT ISZERO PUSH2 0x3A5 JUMPI PUSH2 0x3A4 PUSH2 0x313 JUMP JUMPDEST JUMPDEST PUSH2 0x3AE DUP3 PUSH2 0x303 JUMP JUMPDEST SWAP1 POP PUSH1 0x20 DUP2 ADD SWAP1 POP SWAP2 SWAP1 POP JUMP JUMPDEST DUP3 DUP2 DUP4 CALLDATACOPY PUSH0 DUP4 DUP4 ADD MSTORE POP POP POP JUMP JUMPDEST PUSH0 PUSH2 0x3DB PUSH2 0x3D6 DUP5 PUSH2 0x38B JUMP JUMPDEST PUSH2 0x371 JUMP JUMPDEST SWAP1 POP DUP3 DUP2 MSTORE PUSH1 0x20 DUP2 ADD DUP5 DUP5 DUP5 ADD GT ISZERO PUSH2 0x3F7 JUMPI PUSH2 0x3F6 PUSH2 0x2FF JUMP JUMPDEST JUMPDEST PUSH2 0x402 DUP5 DUP3 DUP6 PUSH2 0x3BB JUMP JUMPDEST POP SWAP4 SWAP3 POP POP POP JUMP JUMPDEST PUSH0 DUP3 PUSH1 0x1F DUP4 ADD SLT PUSH2 0x41E JUMPI PUSH2 0x41D PUSH2 0x2FB JUMP JUMPDEST JUMPDEST DUP2 CALLDATALOAD PUSH2 0x42E DUP5 DUP3 PUSH1 0x20 DUP7 ADD PUSH2 0x3C9 JUMP JUMPDEST SWAP2 POP POP SWAP3 SWAP2 POP POP JUMP JUMPDEST PUSH0 DUP1 PUSH1 0x40 DUP4 DUP6 SUB SLT ISZERO PUSH2 0x44D JUMPI PUSH2 0x44C PUSH2 0x295 JUMP JUMPDEST JUMPDEST PUSH0 DUP4 ADD CALLDATALOAD PUSH8 0xFFFFFFFFFFFFFFFF DUP2 GT ISZERO PUSH2 0x46A JUMPI PUSH2 0x469 PUSH2 0x299 JUMP JUMPDEST JUMPDEST PUSH2 0x476 DUP6 DUP3 DUP7 ADD PUSH2 0x40A JUMP JUMPDEST SWAP3 POP POP PUSH1 0x20 PUSH2 0x487 DUP6 DUP3 DUP7 ADD PUSH2 0x2BC JUMP JUMPDEST SWAP2 POP POP SWAP3 POP SWAP3 SWAP1 POP JUMP JUMPDEST PUSH2 0x49A DUP2 PUSH2 0x29D JUMP JUMPDEST DUP3 MSTORE POP POP JUMP JUMPDEST PUSH0 DUP2 MLOAD SWAP1 POP SWAP2 SWAP1 POP JUMP JUMPDEST PUSH0 DUP3 DUP3 MSTORE PUSH1 0x20 DUP3 ADD SWAP1 POP SWAP3 SWAP2 POP POP JUMP JUMPDEST PUSH0 JUMPDEST DUP4 DUP2 LT ISZERO PUSH2 0x4D7 JUMPI DUP1 DUP3 ADD MLOAD DUP2 DUP5 ADD MSTORE PUSH1 0x20 DUP2 ADD SWAP1 POP PUSH2 0x4BC JUMP JUMPDEST PUSH0 DUP5 DUP5 ADD MSTORE POP POP POP POP JUMP JUMPDEST PUSH0 PUSH2 0x4EC DUP3 PUSH2 0x4A0 JUMP JUMPDEST PUSH2 0x4F6 DUP2 DUP6 PUSH2 0x4AA JUMP JUMPDEST SWAP4 POP PUSH2 0x506 DUP2 DUP6 PUSH1 0x20 DUP7 ADD PUSH2 0x4BA JUMP JUMPDEST PUSH2 0x50F DUP2 PUSH2 0x303 JUMP JUMPDEST DUP5 ADD SWAP2 POP POP SWAP3 SWAP2 POP POP JUMP JUMPDEST PUSH0 PUSH1 0x40 DUP3 ADD SWAP1 POP PUSH2 0x52D PUSH0 DUP4 ADD DUP6 PUSH2 0x491 JUMP JUMPDEST DUP2 DUP2 SUB PUSH1 0x20 DUP4 ADD MSTORE PUSH2 0x53F DUP2 DUP5 PUSH2 0x4E2 JUMP JUMPDEST SWAP1 POP SWAP4 SWAP3 POP POP POP JUMP JUMPDEST PUSH0 PUSH1 0x20 DUP3 ADD SWAP1 POP PUSH2 0x55B PUSH0 DUP4 ADD DUP5 PUSH2 0x491 JUMP JUMPDEST SWAP3 SWAP2 POP POP JUMP JUMPDEST PUSH0 PUSH1 0x20 DUP3 DUP5 SUB SLT ISZERO PUSH2 0x576 JUMPI PUSH2 0x575 PUSH2 0x295 JUMP JUMPDEST JUMPDEST PUSH0 DUP3 ADD CALLDATALOAD PUSH8 0xFFFFFFFFFFFFFFFF DUP2 GT ISZERO PUSH2 0x593 JUMPI PUSH2 0x592 PUSH2 0x299 JUMP JUMPDEST JUMPDEST PUSH2 0x59F DUP5 DUP3 DUP6 ADD PUSH2 0x40A JUMP JUMPDEST SWAP2 POP POP SWAP3 SWAP2 POP POP JUMP JUMPDEST PUSH0 DUP2 SWAP1 POP SWAP3 SWAP2 POP POP JUMP JUMPDEST PUSH0 PUSH2 0x5BC DUP3 PUSH2 0x4A0 JUMP JUMPDEST PUSH2 0x5C6 DUP2 DUP6 PUSH2 0x5A8 JUMP JUMPDEST SWAP4 POP PUSH2 0x5D6 DUP2 DUP6 PUSH1 0x20 DUP7 ADD PUSH2 0x4BA JUMP JUMPDEST DUP1 DUP5 ADD SWAP2 POP POP SWAP3 SWAP2 POP POP JUMP JUMPDEST PUSH0 PUSH2 0x5ED DUP3 DUP5 PUSH2 0x5B2 JUMP JUMPDEST SWAP2 POP DUP2 SWAP1 POP SWAP3 SWAP2 POP POP JUMP JUMPDEST PUSH32 0x4E487B7100000000000000000000000000000000000000000000000000000000 PUSH0 MSTORE PUSH1 0x22 PUSH1 0x4 MSTORE PUSH1 0x24 PUSH0 REVERT JUMPDEST PUSH0 PUSH1 0x2 DUP3 DIV SWAP1 POP PUSH1 0x1 DUP3 AND DUP1 PUSH2 0x63C JUMPI PUSH1 0x7F DUP3 AND SWAP2 POP JUMPDEST PUSH1 0x20 DUP3 LT DUP2 SUB PUSH2 0x64F JUMPI PUSH2 0x64E PUSH2 0x5F8 JUMP JUMPDEST JUMPDEST POP SWAP2 SWAP1 POP JUMP JUMPDEST PUSH0 DUP2 SWAP1 POP DUP2 PUSH0 MSTORE PUSH1 0x20 PUSH0 KECCAK256 SWAP1 POP SWAP2 SWAP1 POP JUMP JUMPDEST PUSH0 PUSH1 0x20 PUSH1 0x1F DUP4 ADD DIV SWAP1 POP SWAP2 SWAP1 POP JUMP JUMPDEST PUSH0 DUP3 DUP3 SHL SWAP1 POP SWAP3 SWAP2 POP POP JUMP JUMPDEST PUSH0 PUSH1 0x8 DUP4 MUL PUSH2 0x6B1 PUSH32 0xFFFFFFFFFFFFFFFFFFFFFFFFFFFFFFFFFFFFFFFFFFFFFFFFFFFFFFFFFFFFFFFF DUP3 PUSH2 0x676 JUMP JUMPDEST PUSH2 0x6BB DUP7 DUP4 PUSH2 0x676 JUMP JUMPDEST SWAP6 POP DUP1 NOT DUP5 AND SWAP4 POP DUP1 DUP7 AND DUP5 OR SWAP3 POP POP POP SWAP4 SWAP3 POP POP POP JUMP JUMPDEST PUSH0 DUP2 SWAP1 POP SWAP2 SWAP1 POP JUMP JUMPDEST PUSH0 PUSH2 0x6F6 PUSH2 0x6F1 PUSH2 0x6EC DUP5 PUSH2 0x29D JUMP JUMPDEST PUSH2 0x6D3 JUMP JUMPDEST PUSH2 0x29D JUMP JUMPDEST SWAP1 POP SWAP2 SWAP1 POP JUMP JUMPDEST PUSH0 DUP2 SWAP1 POP SWAP2 SWAP1 POP JUMP JUMPDEST PUSH2 0x70F DUP4 PUSH2 0x6DC JUMP JUMPDEST PUSH2 0x723 PUSH2 0x71B DUP3 PUSH2 0x6FD JUMP JUMPDEST DUP5 DUP5 SLOAD PUSH2 0x682 JUMP JUMPDEST DUP3 SSTORE POP POP POP POP JUMP JUMPDEST PUSH0 SWAP1 JUMP JUMPDEST PUSH2 0x737 PUSH2 0x72B JUMP JUMPDEST PUSH2 0x742 DUP2 DUP5 DUP5 PUSH2 0x706 JUMP JUMPDEST POP POP POP JUMP JUMPDEST JUMPDEST DUP2 DUP2 LT ISZERO PUSH2 0x765 JUMPI PUSH2 0x75A PUSH0 DUP3 PUSH2 0x72F JUMP JUMPDEST PUSH1 0x1 DUP2 ADD SWAP1 POP PUSH2 0x748 JUMP JUMPDEST POP POP JUMP JUMPDEST PUSH1 0x1F DUP3 GT ISZERO PUSH2 0x7AA JUMPI PUSH2 0x77B DUP2 PUSH2 0x655 JUMP JUMPDEST PUSH2 0x784 DUP5 PUSH2 0x667 JUMP JUMPDEST DUP2 ADD PUSH1 0x20 DUP6 LT ISZERO PUSH2 0x793 JUMPI DUP2 SWAP1 POP JUMPDEST PUSH2 0x7A7 PUSH2 0x79F DUP6 PUSH2 0x667 JUMP JUMPDEST DUP4 ADD DUP3 PUSH2 0x747 JUMP JUMPDEST POP POP JUMPDEST POP POP POP JUMP JUMPDEST PUSH0 DUP3 DUP3 SHR SWAP1 POP SWAP3 SWAP2 POP POP JUMP JUMPDEST PUSH0 PUSH2 0x7CA PUSH0 NOT DUP5 PUSH1 0x8 MUL PUSH2 0x7AF JUMP JUMPDEST NOT DUP1 DUP4 AND SWAP2 POP POP SWAP3 SWAP2 POP POP JUMP JUMPDEST PUSH0 PUSH2 0x7E2 DUP4 DUP4 PUSH2 0x7BB JUMP JUMPDEST SWAP2 POP DUP3 PUSH1 0x2 MUL DUP3 OR SWAP1 POP SWAP3 SWAP2 POP POP JUMP JUMPDEST PUSH2 0x7FB DUP3 PUSH2 0x4A0 JUMP JUMPDEST PUSH8 0xFFFFFFFFFFFFFFFF DUP2 GT ISZERO PUSH2 0x814 JUMPI PUSH2 0x813 PUSH2 0x313 JUMP JUMPDEST JUMPDEST PUSH2 0x81E DUP3 SLOAD PUSH2 0x625 JUMP JUMPDEST PUSH2 0x829 DUP3 DUP3 DUP6 PUSH2 0x769 JUMP JUMPDEST PUSH0 PUSH1 0x20 SWAP1 POP PUSH1 0x1F DUP4 GT PUSH1 0x1 DUP2 EQ PUSH2 0x85A JUMPI PUSH0 DUP5 ISZERO PUSH2 0x848 JUMPI DUP3 DUP8 ADD MLOAD SWAP1 POP JUMPDEST PUSH2 0x852 DUP6 DUP3 PUSH2 0x7D7 JUMP JUMPDEST DUP7 SSTORE POP PUSH2 0x8B9 JUMP JUMPDEST PUSH1 0x1F NOT DUP5 AND PUSH2 0x868 DUP7 PUSH2 0x655 JUMP JUMPDEST PUSH0 JUMPDEST DUP3 DUP2 LT ISZERO PUSH2 0x88F JUMPI DUP5 DUP10 ADD MLOAD DUP3 SSTORE PUSH1 0x1 DUP3 ADD SWAP2 POP PUSH1 0x20 DUP6 ADD SWAP5 POP PUSH1 0x20 DUP2 ADD SWAP1 POP PUSH2 0x86A JUMP JUMPDEST DUP7 DUP4 LT ISZERO PUSH2 0x8AC JUMPI DUP5 DUP10 ADD MLOAD PUSH2 0x8A8 PUSH1 0x1F DUP10 AND DUP3 PUSH2 0x7BB JUMP JUMPDEST DUP4 SSTORE POP JUMPDEST PUSH1 0x1 PUSH1 0x2 DUP9 MUL ADD DUP9 SSTORE POP POP POP JUMPDEST POP POP POP POP POP POP JUMP INVALID LOG2 PUSH5 0x6970667358 0x22 SLT KECCAK256 DUP4 EQ BLOBBASEFEE 0xC5 PUSH29 0xFB33C6512245F29E2A1EADD0F5F852081919251EBFFB7F7658CBDA6473 PUSH16 0x6C63430008180033A264697066735822 SLT KECCAK256 PUSH19 0xB26B74E8E5294EF45A28C4AA967A287EDA2D32 LOG4 CODECOPY TLOAD ORIGIN 0xAA 0xCA 0x4F DUP13 PUSH10 0x23CF1264736F6C634300 ADDMOD XOR STOP CALLER "
				},
				"gasEstimates": {
					"creation": {
						"codeDepositCost": "720800",
						"executionCost": "751",
						"totalCost": "721551"
					},
					"external": {
						"createSimpleStorageContract()": "infinite",
						"listOfSimpleStorageContracts(uint256)": "infinite",
						"sfGet(uint256)": "infinite",
						"sfStore(uint256,uint256)": "infinite"
					}
				},
				"methodIdentifiers": {
					"createSimpleStorageContract()": "1dda6541",
					"listOfSimpleStorageContracts(uint256)": "f39f3035",
					"sfGet(uint256)": "c5f19c20",
					"sfStore(uint256,uint256)": "1563700f"
				}
			},
			"storageLayout": {
				"storage": [
					{
						"astId": 73,
						"contract": "contracts/StorageFactory.sol:StorageFactory",
						"label": "listOfSimpleStorageContracts",
						"offset": 0,
						"slot": "0",
						"type": "t_array(t_contract(SimpleStorage)63)dyn_storage"
					}
				],
				"types": {
					"t_array(t_contract(SimpleStorage)63)dyn_storage": {
						"base": "t_contract(SimpleStorage)63",
						"encoding": "dynamic_array",
						"label": "contract SimpleStorage[]",
						"numberOfBytes": "32"
					},
					"t_contract(SimpleStorage)63": {
						"encoding": "inplace",
						"label": "contract SimpleStorage",
						"numberOfBytes": "20"
					}
				}
			},
			"userdoc": {
				"kind": "user",
				"methods": {},
				"version": 1
			}
		}
	}
}